:020000040800F2
:10000000E0910020090300089F310008312B00080F
:100010009D3100089D0D0008053A00080000000011
:10002000000000000000000000000000490200087D
:10003000750E000800000000A50200086D340008DD
:1000400023030008230300082303000823030008F8
:100050002303000823030008770E00082303000889
:1000600023030008230300082303000823030008D8
:1000700023030008230300082303000823030008C8
:10008000A10D0008AD0D00082303000800000000CA
:100090000000000000000000000000002303000832
:1000A0002303000823030008230300082303000898
:1000B0002303000823030008293500082303000850
:1000C0002303000823030008230300082303000878
:1000D00023030008F5390008013A00080000000079
:1000E0002303000823030008230300080000000086
:1000F00000000000000000000000000023030008D2
:100100000000000023030008230300082303000865
:1001100000000000000000000000000000000000DF
:100120002303000823030008B90D00082303000877
:100130002303000800000000000000000000000091
:100140000000000000000000000000002303000881
:100150002303000823030008C50D0008230300083B
:100160002303000823030008000000000000000033
:10017000000000000000000000000000000000007F
:100180000000000023030008000000000000000041
:10019000230300082303000800F002F800F044F8ED
:1001A0000AA090E8000C82448344AAF10107DA45D2
:1001B00001D100F039F8AFF2090EBAE80F0013F0E0
:1001C000010F18BFFB1A43F001031847445B0000FE
:1001D000645B0000103A24BF78C878C1FAD852078F
:1001E00024BF30C830C144BF04680C6070470000B1
:1001F0000023002400250026103A28BF78C1FBD830
:10020000520728BF30C148BF0B607047642900F017
:100210002F81752900F02C81002070471FB505F053
:10022000D7FC1FBD10B510BD00F08BFB1146FFF7CA
:10023000F5FF03F047FC00F0A9FB03B4FFF7F2FF62
:1002400003BC00F0B1FB00002C4B19680868B0E853
:10025000F04F80F30988BFF36F8F4FF0000080F3F9
:10026000118870470000000008480068006880F3AB
:1002700008884FF0000080F3148862B661B6BFF3BF
:100280004F8FBFF36F8F00DF00BF00BF08ED00E0AE
:10029000DFF80C00016841F470010160704700BF95
:1002A00088ED00E0EFF30980BFF36F8F134B1A68FE
:1002B0001EF0100F08BF20ED108A20E9F04F1060EB
:1002C00009B44FF0500080F31188BFF34F8FBFF394
:1002D0006F8F04F08DFD4FF0000080F3118809BC92
:1002E00019680868B0E8F04F1EF0100F08BFB0ECB6
:1002F000108A80F30988BFF36F8F704728000020B1
:10030000EFF305807047000009488047094800471F
:10031000FEE7FEE7FEE7FEE7FEE7FEE7FEE7FEE7B5
:10032000FEE7FEE704480549054A064B7047000012
:100330001935000899010008E08B0020E0910020A9
:10034000E08D0020E08D002053EA020C00F069806F
:100350002DE9F04B4FF00006002B1FBFB3FA83F5D9
:1003600003FA05F424FA05F65E4012BF1643B2FA0A
:1003700082F502FA05F4C5F120051EBF22FA05FC3C
:1003800044EA0C04203556EA044C4FEA144418BFE2
:10039000641C4FF000084FF00009904271EB030C11
:1003A00039D3002919BFB1FA81F701FA07F6B0FA7B
:1003B00080F700FA07F6C7F120071EBF20FA07FCF6
:1003C00046EA0C062037B6FBF4FCA7EB0507103F06
:1003D00007F01F0BCBF120060CFA0BFB2CFA06F6EC
:1003E00044BFB3460026202FA4BF5E464FF0000B4B
:1003F0005BEA060C08BF4FF0010B19EB0B09ABFBD6
:10040000027C48EB0608C01B06FB02CC0BFB03CCAE
:1004100071EB0C01C1E70B46024641464846BDE878
:10042000F08B13B54FF000004FF00001AFF30080E8
:10043000BDE81C40704700000FB47CB50C0009AA51
:10044000009001D02044401E084B7B446946019037
:10045000089800F002FA05461CB10020694600F039
:100460000FFA28467CBC5DF814FB00003D04000038
:100470002DE9F0410646002410687529314616A57D
:1004800010D0AFF30080002802DA404213A507E045
:1004900031688A0701D512A502E0490704D511A5E4
:1004A000012401E0AFF3008000210A2206F12407B5
:1004B00009E0B0FBF2FCB0FBF2F302FB1C003030B1
:1004C00078541846491C0028F3D123462A46304662
:1004D000BDE8F04100F062B9000000002D0000000E
:1004E0002B000000200000002DE9F05F8946044643
:1004F0004FF0000ADFF874B1FB44C0F820A020469A
:10050000E1688847002874D0252806D0D4E9012165
:100510009047206A401C2062F1E700265F46204693
:10052000E16888472028054607DB312D05D2781978
:1005300010F8200C08B10643F1E7B00701D526F00A
:100540000406C4F81CA00027C4F818A02A2D09D05E
:10055000284603F068FA38B304EB8708303DC8F842
:10056000185019E059F8041B204604EB87029161EA
:10057000E1688847012F054618D1E069002820DA94
:1005800026F020061DE0D8F8180000EB800005EBEF
:1005900040003038C8F818002046E1688847054612
:1005A00003F041FA0028EED1012F0AD02E2D08D1F8
:1005B0002046E16888477F1C0546022F46F020064A
:1005C000C4DBA069002803DA404246F00106A061BE
:1005D000F00701D026F010066C2D0BD0682D09D045
:1005E0004C2D39D06A2D35D0742D35D07A2D33D09D
:1005F00016E038E0E1682F4620468847B8420546B5
:1006000009D16C2F26D04FF48060E1680643204664
:100610008847054604E06C2F1AD04FF480700643DB
:100620000DB3A5F14100192802D8203546F4006623
:100630004A462946204626604E46FFF7E7FD80B130
:1006400001280BD0F61D26F0070000F1080956E737
:100650004020E4E78020D8E70020D6E706F104092F
:100660004DE7284652E7206ABDE8F09FB8570000E2
:1006700010B5431C02E010F8011B71B18107FAD1DB
:100680004FF0013202C88C1A8C4314EAC211F9D01F
:10069000C01A0A0603D0C01E10BDC01A10BD0A043D
:1006A00001D0801E10BD0902FCD0401E10BD032ADF
:1006B00040F2308010F0030C00F0158011F8013B7F
:1006C000BCF1020F624498BF11F801CB00F8013B66
:1006D00038BF11F8013BA2F1040298BF00F801CB2A
:1006E00038BF00F8013B11F0030300F0D680083A50
:1006F000C0F0088051F8043B083A51F804CBA0E858
:100700000810F5E7121D5CBF51F8043B40F8043BAC
:10071000AFF30080D20724BF11F8013B11F801CBE1
:1007200048BF11F8012B24BF00F8013B00F801CBB2
:1007300048BF00F8012B704702F0FF0343EA032291
:1007400042EA024200F0DDB84FF0000200B5134665
:1007500094469646203922BFA0E80C50A0E80C50E1
:10076000B1F12001BFF4F7AF090728BFA0E80C5092
:1007700048BF0CC05DF804EB890028BF40F8042B8B
:1007800008BF704748BF20F8022B11F0804F18BFF8
:1007900000F8012B70477047704770472DE9F0470C
:1007A0000D4699469246044600F1240801688806E1
:1007B00004D5E06921F01001216000E00120A84289
:1007C00001DD471B00E00027A1697A1902EB09004F
:1007D000081AA0612078C00602D42046AFF300803A
:1007E000002608E0D4E901211AF806009047206AA3
:1007F000401C761C20624E45F4DB2078C0060AD5EA
:100800002046AFF3008006E0D4E901213020904774
:10081000206A401C2062381EA7F10107F4DC07E0C3
:10082000D4E9012118F805009047206A401C206295
:10083000281EA5F10105F3DC2046AFF300802078E7
:10084000000602D50220BDE8F0870120FBE700008A
:1008500001694A1C02610878704700B58FB0CDE984
:1008600001310021059105497944CDE90310114674
:100870006846FFF739FE0FB000BD0000E5FFFFFF3F
:100880000A6802F8010B0A607047D1E900239A4216
:1008900002D2531C0B601070704710B5203AC0F0A4
:1008A0000B80B1E81850203AA0E81850B1E8185071
:1008B000A0E81850BFF4F5AF5FEA027C24BFB1E8AE
:1008C0001850A0E8185044BF18C918C0BDE810401F
:1008D0005FEA827C24BF51F8043B40F8043B08BF28
:1008E0007047D20728BF31F8023B48BF11F8012BEF
:1008F00028BF20F8023B48BF00F8012B70474FF09B
:1009000000020429C0F0128010F0030C3FF41EAF67
:10091000CCF1040CBCF1020F18BF00F8012BA8BFEA
:1009200020F8022BA1EB0C01FFF710BF5FEAC17C9E
:1009300024BF00F8012B00F8012B48BF00F8012B61
:100940007047754600F02CF8AE46050069465346E0
:1009500020F00700854618B020B5FFF7E3FCBDE89E
:1009600020404FF000064FF000074FF000084FF016
:10097000000B21F00701AC46ACE8C009ACE8C009A7
:10098000ACE8C009ACE8C0098D46704710B5044614
:10099000AFF300802046BDE81040FFF74EBC0000DA
:1009A000004870477C8B002001491820ABBEFEE751
:1009B000260002007047000070B586B0142168461A
:1009C000FFF7C2FE1020009001250024CDE901545C
:1009D000114E69463046039400F0A8FC0122102114
:1009E000304600F098FD20200090CDE90154694682
:1009F0003046039400F09AFC01222021304600F09A
:100A00008AFD0220CDE9000469463046029400F0D8
:100A10008DFC06B070BD00000000024010B5022140
:100A2000034800F073FD012800D0002010BD000035
:100A300000000240F0B585B015460E4610B10EB16B
:100A4000202D03D24FF0FF3005B0F0BD90ED010A2C
:100A5000F2EE040A0A2120EE200ABDEEC00A10EED2
:100A6000103A90ED020A20EE200ABDEEC00A10EE08
:100A7000104A002C05DA624292FBF1F701FB1722C3
:100A800003E094FBF1F201FB124294FBF1F7002B1F
:100A900005DA5C4294FBF1FC01FB1C4403E093FB90
:100AA000F1F401FB143493FBF1F10DF1040C049209
:100AB0008CE8920041780091037803A229463046E1
:100AC000FFF7BAFCC0E700007B226872223A257566
:100AD0002C2273706F32223A25752C2274656D704A
:100AE000223A25642E25642C2268756D223A2564ED
:100AF0002E25647D0000000001221021014800F035
:100B00000ABD0000000002401CB50021042003F0D3
:100B10002DFE0021052003F029FE0021062003F010
:100B200025FE002406226946072003F0EDFD641C23
:100B3000202CF7DB1CBD10B54021092003F016FE68
:100B40000A2000F0D3FB0321082003F00FFEC1218F
:100B50000A2003F00BFE7F210C2003F007FE7F210B
:100B60000D2003F003FE1021112003F0FFFD2121D1
:100B7000122003F0FBFDFFF7C7FF4321092003F01C
:100B8000F5FD002010BD08B56946FF2003F0D6FD35
:100B900018B99DF80000152801D0012008BDFFF705
:100BA000CAFF08BD1CB5044606226946072003F0AB
:100BB000ABFD002816D19DF800009DF8011000043F
:100BC00040EA01209DF80210084320609DF80300D0
:100BD0009DF80410000440EA01209DF80510084328
:100BE000606000201CBD00006423032288210148AE
:100BF00000F060BDB40000207FB505462C208DF8C4
:100C00000C0006200C468DF80D006426022303AA72
:100C100088212648009600F0FBFE00281DD11420F4
:100C200003F056FF062301AA88212048009600F011
:100C3000F7FD002811D1022101A803F0A7FD9DF8BE
:100C40000610884208D102210DF1070003F09EFD35
:100C50009DF80910884202D0012004B070BDBDF893
:100C60000400DFED130A43BA00EE103ABDF80700A6
:100C7000B8EE400A42BA002020EE201ADFED0D0A3D
:100C800081EE200A9FED0C1A30EE010A9FED0B1A3F
:100C900085ED000A00EE102AB8EE400A20EE010AA7
:100CA00080EE201A84ED001AD7E70000B40000207F
:100CB00000002F4300FF7F47000034C20000C842FD
:100CC00008B5002000900D4800680168C90605D5E8
:100CD000C068C00602D5684603F072FD074801F0FF
:100CE000FDFB0098002807D005494FF080500860B0
:100CF000BFF34F8FBFF36F8F08BD0000500100207E
:100D000004ED00E010B500228221082004F04AF929
:100D10000A49486080B10020488009480068C168DD
:100D200041F01001C1604FF480720649044801F09F
:100D300019FE002801D0FEE7FEE710BDAC00002040
:100D4000500100207C8A00200A4601460148406884
:100D500004F0EEBAAC00002010B5084C002222705E
:100D60000A460146064801F00DFE02E0012002F0AD
:100D7000BEFE20780028F9D010BD0000AC00002095
:100D80005001002010B5040007D0FFF771FC81B2BC
:100D90002046BDE81040FFF7DFBF10BDFEE70000B2
:100DA000014800F031B9000058020020014800F06D
:100DB0002BB90000B8020020014800F025B900005E
:100DC00098010020014800F01FB90000F801002040
:100DD00001681823CAB2103AB2FBF3F2054B6FF365
:100DE0000901032A9B5CC36500D9091D816508467A
:100DF00070470000945C000810B5014600208B6924
:100E00008A6A4FF0C07453B1B3F5005F15D072B168
:100E1000012A0CD0022A0AD0032A09D104E01AB10F
:100E2000012A06D0022A03D1C96AC90100D50120CE
:100E300010BDC96AA142FAD010BD002AF7D0012A1C
:100E4000F2D0022AF3D0032AF3D010BD30B50468E3
:100E5000256825F480252560046863608368402B3D
:100E6000036803D099600068C26030BD9A60006872
:100E7000C16030BD7047012000F04CBA72B6FEE789
:100E8000F0B5B0F8003140F82310B0F8001100EBD5
:100E90008101C1F8802090F80011491C01F01F0168
:100EA000A0F80011B0F80211202905D2491C89B21E
:100EB000A0F80211202948D34FF0000C4FF0FF3367
:100EC0001C46E646674666464FEA0C0500EB85027F
:100ED00050F82510D2F88020A14200D20C4661457E
:100EE00000D98C469A4200D21346724500D99646E4
:100EF0006D1C0F441644202DE8DB00EE107ADFED68
:100F0000130AACEB0401B8EE400A20EE200A80ED93
:100F1000430A00EE106AB8EE400A20EE200A80ED87
:100F2000440A00EE101AAEEB0301F8EE400AB6EEEA
:100F3000000A60EE800AC0ED410A00EE901AF8EE59
:100F4000600A20EE800A80ED420AF0BD0000003DFC
:100F50002DE9F0410446876D00F0E2FA064694F868
:100F600035000025022806D08020606584F83450C2
:100F70000120BDE8F0812068016821F016010160C0
:100F80002068416921F080014161206C08B9A06CA2
:100F900020B12068016821F0080101602068016823
:100FA00021F0010101600CE000F0BAFA801B052875
:100FB00007D920206065032084F8350084F8345078
:100FC000D7E720680068C007EED194F85C103F2096
:100FD0008840B860012084F8350084F8345000203F
:100FE000C7E790F83510022903D080214165012020
:100FF0007047052180F835100068016821F0010173
:1010000001600020704700002DE9F84304464FF0CE
:101010000009CDF8009063484FF41651A56D0068A3
:10102000B0FBF1F72E6894F85C10082000FA01F18B
:1010300031420FD021680A6852070BD50A6822F0A6
:1010400004020A6094F85C108840A860606D40F06B
:101050000100606594F85C104FF0010808FA01F097
:10106000304208D021684969090604D5A860606D3E
:1010700040F00200606594F85C1004208840304223
:1010800008D021680968890704D5A860606D40F020
:101090000400606594F85C1010208840304218D03D
:1010A00021680968090714D5A86020680168490308
:1010B00004D50068000308D5A16C07E00168C905E4
:1010C00003D4016821F008010160216C09B12046B8
:1010D000884794F85C1020208840304231D0216845
:1010E0000968C9062DD5A86094F835000528206840
:1010F000016806D0490347D5006800031DD4616C20
:101100001CE021F0160101602068416921F0800196
:101110004161206C08B9A06C20B12068016821F001
:101120000801016094F85C103F208840A86084F8B2
:10113000358084F83490216D1FE0E16B09B12046C1
:101140008847606D00282BD0606DC00714D0052043
:1011500084F835002068016821F0010101600098E1
:10116000401C0090B84203D820680068C007F6D140
:1011700084F8358084F83490E16C002910D001B0F7
:101180002046BDE8F04308470168C905D5D4016889
:1011900021F01001016084F8358084F83490CCE7A8
:1011A000BDE8F883240000202DE9F041044600F05A
:1011B000B7F906465CB1022084F83500002584F8B2
:1011C00034502068016821F0010101600DE0012028
:1011D000BDE8F08100F0A4F9801B052805D9202086
:1011E0006065032084F83500F2E720680068C007D6
:1011F000F0D12268116820480140D4E90103184366
:10120000D4E903363343184363691843A369184389
:10121000E3691843236A18430843616A042903D128
:10122000D4E90B1319430843106020684069666ACB
:1012300020F0070130460E43012704280CD1A06A94
:101240000643E06A40B12046FFF7D6FD20B14020BA
:10125000606584F83570BAE7206846612046FFF77C
:10126000B7FD94F85C203F2191408160656584F86A
:1012700035700020ACE700003F8010F02DE9F04110
:101280000446866D90F83400002501280DD0012019
:1012900084F8340094F835700020012F07D084F8CA
:1012A000340002252846BDE8F0810220FBE7022732
:1012B00084F8357060652046FFF7C8FD94F85C102F
:1012C0003F208840B0602068016841F0160101604D
:1012D000206C20B12068016841F00801016020689D
:1012E000016841F001010160DCE7000070B50446CF
:1012F00000F016F90546601C02D00448007804444A
:1013000000F00EF9401BA042FAD370BD1800002077
:1013100070470000044910B50A68024202D0086014
:10132000FFF7F6FF10BD0000143C01402DE9F84F17
:10133000DFF8B8A10022012403254FF00F090AF1BC
:10134000040BAAF1040E00BF0B6804FA02F6334046
:10135000B34273D10F7907F00307012F01D0022F99
:1013600016D187684FEA420805FA08FC27EA0C07FD
:10137000D1F80CC00CFA08FC4CEA070CC0F808C005
:101380004768B7430E79C6F3001696403E43466061
:101390000E79F643B6070DD0C768560005FA06FC6D
:1013A00027EA0C07D1F808C00CFA06FC4CEA070C37
:1013B000C0F80CC00E7906F00306022E10D1D60834
:1013C00000EB8608D8F8206057074FEAD76C09FA77
:1013D0000CF7BE430F6907FA0CF73743C8F82070C3
:1013E00006684FEA420C05FA0CF7BE430F7907F086
:1013F000030707FA0CF7374307604E6816F4403FBF
:101400006DD03B4E376847F480473760366822F02E
:10141000030706F480460096364E07EB060CDCF810
:10142000086897073F0F09FA07F826EA0806DFF869
:10143000C880404503D14FF000081EE04FE0DFF8C0
:10144000BC80404502D14FF0010816E0DFF8B080C3
:10145000404502D14FF002080FE0DFF8A880404578
:1014600002D14FF0030808E0DFF89C80404502D12C
:101470004FF0040801E04FF0070808FA07F848EABF
:101480000608CCF80888DAF800605746D1F804C09E
:101490009E435FEACC2C00D51E433E60DBF8006023
:1014A0005F46D1F804C09E435FEA8C2C00D51E43F2
:1014B0003E60DEF800607746D1F804C09E435FEAE4
:1014C0008C3C00D51E433E60084F083F3E68D1F873
:1014D00004C09E435FEACC3C00D51E433E60521CD4
:1014E000102AFFF431AFBDE8F88F0000083C01403E
:1014F0004438024000300140000002400004024035
:1015000000080240000C0240001002400069084040
:1015100000D0012070470AB1816170470904FBE7E0
:1015200001488068704700001800002070B5040072
:1015300025D094F83D00002520B984F83C50204681
:1015400000F0FCFA242084F83D002068016821F0B6
:10155000010101602068016841F4004101602068D8
:10156000016821F40041016000F0A0FC4D4A61686F
:10157000914201D84C4900E04C49884201D20120F7
:1015800070BD4B492368B0FBF1F15E6826F03F0661
:101590000E435E606368934206D94FF496735943D5
:1015A0004FF47A73B1FBF3F12368491C1E6A26F0ED
:1015B0003F06314319626168914210D84900401ECC
:1015C000B0FBF1F2521CC2F30B02042A01D2042038
:1015D00022E0B0FBF1F0401CC0F30B001CE0A2685D
:1015E000F2B301EBC10303EB0116431EB3FBF6F3A9
:1015F0005B1C43F480431B0549D092B301EBC1024D
:1016000002EB0111401EB0FBF1F0401CC0F30B00D7
:1016100040F4804040F400402168CA694CF6FF73F2
:101620009A431043C861D4E9071001432068026857
:1016300022F0C00211430160D4E903010143206894
:10164000826848F2FF339A4311438160D4E905016F
:1016500008432168CA6822F0FF021043C86001E015
:101660000EE016E02068016841F001010160256488
:10167000202084F83D00256384F83E50002070BD92
:1016800001EB4106431EB3FBF6F35B1CB3E70120FD
:10169000C2E701EB4101401EB0FBF1F0401CC0F37A
:1016A0000B00B7E7A086010080841E0000093D0002
:1016B00040420F002DE9FF4F81B089460446FFF7F5
:1016C0002FFF054694F83D004FF0000820287DD1FB
:1016D0001923012250492046009501F031FB0028D2
:1016E00074D194F83C00012870D0012084F83C00AB
:1016F00020680168C90703D1016841F00101016058
:101700002068016821F400610160242084F83D0014
:10171000002626644148E0624FF0011B2027206824
:10172000016841F48071016000950022594620460D
:10173000049B01F005FB50B120680068C00502D58C
:101740004FF400702064032005B0BDE8F08F2168DD
:1017500009F0FE000861FFF7E3FE216805464869CD
:101760004969C0F34000C1F380214FF0A00A0FE0A7
:10177000FFF7D6FE411B0498814200D808B984F8CF
:101780003DA0216848694969C0F34000C1F3802148
:1017900094F83D20A02A02D008B90029E8D084F8A6
:1017A0003D7020684169C943890716D4016841F436
:1017B000007101602068416980691923012216497E
:1017C0002046009501F0BCFAB8B900E021E084F8A9
:1017D0003D7084F83C600020B6E7016841F4007178
:1017E000016021686FF480604861192301220A4971
:1017F0002046009501F0A4FA08B10120A4E703985F
:1018000008F1010880458AD384F83D7084F83C6073
:10181000F3E7022098E70000020010000000FFFF3D
:101820002DE9F84F1F4690468A460446DDF8289079
:10183000FFF776FE054694F83D00202871D1192364
:10184000012270492046009501F07AFA0028F5D16E
:1018500094F83C00012864D0012084F83C00206802
:101860000168C90703D1016841F0010101602068E6
:10187000016821F400610160222084F83D001020FD
:1018800084F83E0000262664C4F824806785608DB5
:1018900020855D48E0622B464A465146204601F0CD
:1018A0005FF9002876D1208D584F68B1012814D0F7
:1018B00002282068016816D041F480610160206828
:1018C0004169806900908EE02068416981690091DA
:1018D000016841F40071016085E02068016821F42D
:1018E00080610160F0E721F4806101602068016897
:1018F00041F40061E2E7032846D801280AD0022813
:1019000010D04B46002239462046009501F018FAC7
:10191000C8BB25E02A464946204601F0B7FA90BBED
:1019200054E06CE04B46002239462046009501F019
:1019300007FA40BB2068016841F40071016020682B
:101940000069616A0870606A401C6062218D491EEE
:101950002185618D491E618521680969017039E021
:101960002068016821F48061016020680069616A73
:101970000870606A401C6062208D401E2085608D6A
:10198000401E6085CEE705E02A464946204601F024
:101990007DFA10B10120BDE8F88F20680069616A06
:1019A0000870606A401C6062208D401E81B22185F3
:1019B000608D401E608520684269D243520712D470
:1019C000032903D1016821F4806101602068006966
:1019D000616A0870606A401C6062208D401E20852C
:1019E000608D401E6085208D002884D1202084F8E1
:1019F0003D0084F83E6084F83C600020CBE7022084
:101A0000C9E70000020010000000FFFF0400010011
:101A10002DE9F84F1F4690468A460446DDF8289087
:101A2000FFF77EFD054694F83D0020287FD119235D
:101A3000012240492046009501F082F9002876D124
:101A400094F83C00012872D0012084F83C00206802
:101A50000168C90703D1016841F0010101602068F4
:101A6000016821F400610160212084F83D0010200C
:101A700084F83E0000262664C4F824806785608DC3
:101A800020852D48E0622B464A465146204601F00B
:101A9000DDF890B9206841698069009036E02A46F7
:101AA0004946204601F02AFA50B1206C042804D19E
:101AB0002068016841F4007101600120BDE8F88FE1
:101AC000606A216800780861606A401C6062618D0C
:101AD000491E6185218D491E89B22185226853697D
:101AE000DB435B070BD451B100781061606A401C86
:101AF0006062608D401E6085208D401E20852A46D4
:101B00004946204601F0F0F80028CED1208D00286B
:101B1000C5D154F83D0B016841F4007101602020EB
:101B200004F81E09E67766770020C7E7FFE7022082
:101B3000C4E70000020010000000FFFF10B586B0EF
:101B4000044614216846FEF7FFFD134920688842C9
:101B500020D112480021026842F0020202600068AF
:101B600000F002000590C02000901220CDE9010194
:101B7000032003900420049069460948FFF7D6FB30
:101B800006481030016841F400110160006800F45B
:101B90000010059006B010BD0054004030380240DF
:101BA0000004024002488168027811448160704755
:101BB000180000200B4810B5016841F40071016065
:101BC000016841F480610160016841F48071016045
:101BD000032000F09FF80F2000F006F800F050F806
:101BE000002010BD003C024030B505461F4887B0BC
:101BF0000024016841F004010160006806A900F0BA
:101C00000400009001A800F031F90498A8B100F098
:101C10004DF940001649174AB0FBF1F11648491E2C
:101C2000026040F2E732C0E90324C0E90114846194
:101C300000F046FB040003D015E000F037F9E9E7B7
:101C40000D4800F06BFB04000DD11E2000F034F8AD
:101C5000102D07D2002229461E2000F03BF807482D
:101C6000056000E0012407B0204630BD4038024046
:101C700040420F0000080040180300201C00002014
:101C80000C4882B0016841F480410160006800F4B2
:101C9000804000900748001F016841F080510160BA
:101CA0000068002200F0805000900F21901E02B0CA
:101CB00000F010B844380240002809DB00F01F0291
:101CC000012191404009800000F1E020C0F800119E
:101CD00070470000F0B40E4B1B680C46C3F30223A0
:101CE000C3F10705042D00D90425191D072901D2C8
:101CF000002300E0DB1E012606FA05F1491E214003
:101D000099409E40761E16403143F0BC01F07BBEE8
:101D10000CED00E0064900F0070208684FF6FF03EB
:101D2000184040EA0220034A104308607047000050
:101D30000CED00E00000FA052DE9F0470E46050025
:101D400065D0DFF81481D8F80000F7B200F0070082
:101D5000B04207D288F80070D8F8000000F0070001
:101D6000B04254D128683D4C810712D5400703D5B5
:101D7000206840F4E05020602878000703D52068F0
:101D800040F4604020602068A96820F0F00008431B
:101D900020602878C0072DD03049686808390128AC
:101DA00012D0022813D0032811D00968890700290E
:101DB0002DDA216821F0030101432160FFF7B0FB18
:101DC000814641F2883A0EE009688903EFE7096825
:101DD0008901ECE7FFF7A4FBA0EB0901514502D90B
:101DE0000320BDE8F0872068696800F00C00B0EBC4
:101DF000810FEFD1D8F80010404601F00701B14241
:101E000007D90770006800F00700B04201D0012038
:101E1000E7E72878400705D52068E96820F4E05016
:101E2000084320602878000706D52068296920F437
:101E3000604040EAC100206000F058F82168084A7C
:101E4000C1F30311515CC8400649086006480068A8
:101E5000FFF7CAFE0020C4E7003C024008380240F9
:101E60009C5C0008240000201C0000200F2202605F
:101E70000C4A136803F003034360136803F0F00394
:101E80008360136803F4E053C36012684FF4E053B7
:101E900003EAD20202610448006800F0070008600B
:101EA0007047000008380240003C024004480549E1
:101EB00000680968044AC1F38221515CC840704738
:101EC0002400002008380240AC5C000804480549A2
:101ED00000680968044AC1F34231515CC840704748
:101EE0002400002008380240AC5C0008154810B5FA
:101EF000006810F00C02144813D01449042A0FD0C3
:101F0000082A0ED10F4C241F2268236802F03F02DA
:101F10005B0207D52068C0F38810A0FB010106E032
:101F2000084610BD2168C1F38811A1FB0001002300
:101F3000FEF70AFA2168C1F30141491C4900B0FBD0
:101F4000F1F010BD083802400024F40040787D0113
:101F50002DE9F84F04006ED02078DFF84C93C007CD
:101F6000A9F104054AD009F104000168C1F3810117
:101F7000012908D00068C0F3810002280AD1D9F8ED
:101F80000000400206D52868800337D56068002825
:101F9000E1D033E06068B0F5803F10D0B0F5A02FFD
:101FA000286810D020F480302860286820F4802031
:101FB00028606068A8B1FFF7B3FA06460DE028680C
:101FC00040F48030F4E740F480202860F7E700BF59
:101FD000FFF7A6FA801B642873D828688003F7D51A
:101FE0000CE0FFF79DFA064605E000BFFFF798FA00
:101FF000801B6428F0D828688003F7D42078DFF8A5
:10200000AC8280074FF0000A3ED5A748001D01684A
:1020100011F00C0F08D00068C0F3810002280BD12A
:10202000D9F80000400207D42868800716D5E06878
:10203000012800D112E033E1E068B8B10120C8F80E
:102040000000FFF76DFA064605E000BFFFF768FAEB
:10205000801B0228C0D828688007F7D52868216926
:1020600020F0F80040EAC10028600DE0C8F800A0A8
:10207000FFF756FA064604E0FFF752FA801B0228E3
:102080001FD828688007F7D42078000722D5864F0C
:1020900087486169703771B101210160FFF740FA2B
:1020A000064604E0FFF73CFA801B022809D838688E
:1020B0008007F7D50EE0C0F800A0FFF731FA06461A
:1020C00005E082E0FFF72CFA801B02287DD83868F3
:1020D0008007F7D42078400768D5DFF8CCB1002717
:1020E0000BF13C0BDBF80000C0000BD4DBF8001058
:1020F00041F08051CBF80010DBF80000012700F020
:10210000805000906B4E3068C00510D4306840F4A9
:1021100080703060FFF704FA009005E0FFF700FAE6
:102120000099401A022850D83068C005F6D55E4E96
:10213000A0686C3601280FD00528306810D020F038
:1021400001003060306820F004003060A068B8B151
:10215000FFF7E6F900900FE0306840F00100F4E787
:1021600040F004003060F7E7FFF7DAF90099411A10
:1021700041F28830814266D830688007F4D50EE09D
:10218000FFF7CEF9009007E0FFF7CAF90099411A6E
:1021900041F28830814256D830688007F4D42FB19C
:1021A000DBF8001021F08051CBF80010A069C8B313
:1021B0003D49091D0968C1F3810102294AD002285D
:1021C000504607D0C8F8600000E03CE0FFF7A8F9EF
:1021D00004463BE04746C8F86000FFF7A1F9064611
:1021E00005E000BFFFF79CF9801B02282BD8286868
:1021F0008001F7D4D4E907010843A16A2E4A4908AF
:1022000002EB0141626A41EA8211084394F82C1002
:1022100040EA0161C9F8001001203866FFF780F933
:10222000044606E03EE000BFFFF77AF9001B0228F3
:1022300009D828688001F7D534E000BFFFF770F9AE
:10224000001B022802D90320BDE8F88F286880010E
:10225000F4D427E00128F7D0D9F80000E26900F4AF
:10226000800191421CD1226A00F03F01914217D1B6
:1022700047F6C071626A0140B1EB821F10D1A26AB9
:102280004FF0FF3300F4403103EB5202B1EB024F49
:1022900006D194F82C1000F07060B0EB016F01D003
:1022A0000120D1E70020CFE7043802400000474278
:1022B000800E4742007000400000FFFF70477047EB
:1022C00010B5040003D094F83D0010B107E00120E0
:1022D00010BD002084F83C00204600F01EF80220CB
:1022E00084F83D00211D206801F024F9012084F8C4
:1022F000460084F83E0084F83F0084F8400084F8EB
:10230000410084F8420084F8430084F8440084F8D3
:10231000450084F83D00002010BD704790F83D1046
:10232000012901D001207047022180F83D10016889
:10233000CA6842F00102CA6000680E4988420ED0A5
:10234000B0F1804F0BD00C49884208D00B4988422D
:1023500005D00B49884202D00A49884204D18168DD
:1023600001F00701062903D0016841F00101016075
:1023700000207047000001400004004000080040B9
:10238000000C00400040014070472DE9F041044638
:102390000068C66805694FF00007A90713D5B107A3
:1023A00011D5F91E0161012020772068806980071E
:1023B000204602D0FFF7E8FF04E000F07EF8204658
:1023C00000F07CF82777680716D5700714D52168C8
:1023D0006FF004000861022020772068806910F403
:1023E000407F204602D0FFF7CFFF04E000F065F801
:1023F000204600F063F82777280715D5300713D556
:1024000021686FF008000861042020772068C06907
:102410008007204602D0FFF7B7FF04E000F04DF838
:10242000204600F04BF82777E80616D5F00614D5BD
:1024300021686FF010000861082020772068C069CB
:1024400010F4407F204602D0FFF79EFF04E000F02A
:1024500034F8204600F032F82777E80708D0F00774
:1024600006D021686FF001000861204600F028F8CE
:10247000280608D5300606D521686FF0800008616F
:102480002046FFF71BFF680608D5700606D52168B1
:102490006FF040000861204600F01CF8A8060AD53D
:1024A000B00608D521686FF0200008612046BDE81D
:1024B000F041FFF704BFBDE8F081704770470000AE
:1024C00000680349884201D1FFF76CBB70470000E8
:1024D000000800407047704770470000F8B5016879
:1024E00004460868CA684B6910F00F0F4FF00005EA
:1024F00059D003F0010602F49077374365D0C10745
:1025000005D0D10503D5616C41F00101616441073B
:1025100005D5D90703D0616C41F0020161648107E0
:1025200005D5D90703D0616C41F00401616401074E
:1025300007D502F02001314303D0616C41F008015E
:102540006164616C00293AD0800604D5900602D5FA
:10255000204601F018F920684069616CC0F38010D2
:10256000090700D460B3204601F0D8F8206840691C
:10257000400621D52068143050E8001F21F04001AA
:1025800040E80012002AF5D1E06BA8B1724901655C
:10259000E06BFEF726FD002811D0E06B016D01B065
:1025A000BDE8F040084783060FD593060DD52046B9
:1025B000BDE8F84001F0E7B82046FFF78DFFF8BD11
:1025C0002046FFF789FF6564F8BD266B2023012EA6
:1025D0007ED1C6067CD5D6067AD5086848680090B4
:1025E00048694FF0020640064DD5E26B106840681E
:1025F0004FF480770004000C3AD0A18D814237D986
:10260000E085D069B8422DD020680C3050E8001F1A
:1026100021F4807140E80012002AF5D120681430BE
:1026200050E8001F21F0010140E80012002AF5D116
:102630002068143050E8001F21F0400140E80012EB
:10264000002AF5D184F84230256320680C3050E828
:10265000001F21F0100140E80012002AF5D1E06BC4
:10266000FEF776FC6663A08DE18D401A81B206E02C
:10267000A18D8142A8D1D069B842A5D16663204618
:10268000FFF729FFF8BDA08DE18D401A81B2E08DE2
:102690000028F7D00029F5D020680C3050E8002F32
:1026A00022F4907240E80027002FF5D12068143002
:1026B00050E8002F22F0010240E80027002FF5D15A
:1026C00084F84230256320680C3050E8002F00E089
:1026D00006E022F0100240E80023002BF3D1CDE702
:1026E00005062BD5150629D594F841002128C9D116
:1026F000A068B0F5805F01D12069B0B1206A411CAB
:102700002162216800784860E08C401E0004000CC3
:10271000E084B7D12068C16821F08001C1602068E1
:10272000C16841F04001C160F8BD206A0088C0F373
:1027300008004860206A801C2062E5E74006F3D567
:102740005006F1D5CA68204622F04002CA6084F8DB
:10275000413000F059F9F8BDD535000870B50400D6
:1027600004D094F84100002510B106E0012070BDAE
:1027700084F84050204600F023F8242084F84100DB
:102780002068C16821F40051C160204601F05CF866
:102790002068016921F4904101612068416921F0BC
:1027A0002A0141612068C16841F40051C16065643B
:1027B000202084F8410084F842006563002070BD49
:1027C0002DE9F04F87B0044614216846FDF7BCFFA1
:1027D000DFF870C1022126685B4803220723DFF877
:1027E0006C8100258F064FF4807A4FF0400B4FF438
:1027F000806966454ED1544E1436D6F800C04CF070
:10280000100CC6F800C0366806F01006059606687B
:1028100046F001060660006800F0010005905002D5
:102820008DE8230069464046CDE90323FEF77EFD8F
:10283000484E4748B8463060C6E90175C6E90359B5
:102840007561C6E9065A35624F4630467562FEF735
:10285000ABFC08B1FEF712FBE663B4633D4E3C48A7
:1028600060367830C6E903577561B561F561356248
:10287000756286E801093046FEF796FC08B1FEF75E
:10288000FDFAA663002207212520B463FFF722FA90
:10289000252051E0DFF8C0C066454FD12A4E1036E2
:1028A000D6F800C04CF4003CC6F800C0366806F408
:1028B00000360596066846F001060660006800F0DE
:1028C000010005900C208DE8230069464046CDE9C3
:1028D0000323FEF72BFD1F4E2048C036B84630605C
:1028E000C6E90175C6E903597561C6E9065A35623C
:1028F0004F4630467562FEF757FC08B1FEF7BEFA48
:10290000E663B463164E1548C6E903577561B561B1
:10291000F56135621830756286E801093046FEF7C8
:1029200043FC08B1FEF7AAFAA6630022062126207E
:10293000B463FFF7CFF92620FFF7BEF907B0BDE873
:10294000F08F0000001001403038024000000240CB
:10295000406402409801002000440040886002402A
:10296000B802002090F84230202B01D0022070479E
:1029700021B11AB10023036300F0ECBF01207047BE
:102980007047704770B5044690F84100202801D088
:10299000022070BD01B3FAB12162A284E28400205A
:1029A0006064212384F84130A56B144BEB63A56B65
:1029B000134B2B64A56B134BEB64A36B186520685A
:1029C0001346A56B021D2846FEF758FC30B11020B7
:1029D0006064202084F84100012070BD21686FF000
:1029E000400008602068143050E8001F41F080016A
:1029F00040E80012002AF5D1002070BDD136000851
:102A000013370008E33500080068064B0121064A29
:102A1000984201D111707047044B9842FBD151701C
:102A20007047000000440040AC000020001001404E
:102A30007047000070B540F82210002A6FD10121C4
:102A400000EB810450F8213054F8045CAB4215D9F6
:102A50006468A34212D990F8343003F00F0300EBFE
:102A60004303998290F834305B1C80F8343090F83E
:102A700035305B1C521C80F83530D2B2491C042919
:102A8000DEDB022A4BD390F83420022A01D3022342
:102A900000E013469A4201D3D11A00E0002100253C
:102AA00010E04C1EE61704EB167626F00F06A41B6A
:102AB00001F00F0600EB440400EB4606A48AB68A38
:102AC000341B2544491CC9B28A42EAD800EE105A88
:102AD0005B1EF8EE400A00EE103AB8EEC01A80EE27
:102AE000810AB5EEC00AF1EE10FA18DD0F4ADFEDEB
:102AF0000D0A9FED0D1A60EE200A81EE200A10EEFD
:102B0000101A1144B1F1947F09D8F6EE000A30EEA4
:102B1000200ABCEEC00A10EE101A80F8361090F8A9
:102B2000360070BD0000C8420080BB450000E0BD1B
:102B3000FEE701684A69D24352050FD46FF4806200
:102B40004A61002140F8301F2022427381730269DC
:102B500042F00402026101730120704700207047B7
:102B60002DE9F84F0446C06A1E4693460D4621687B
:102B70000A6842F480620A60082807D0012805D05C
:102B800010F5803F02D0206B112804D12068016825
:102B900041F4807101604FF001195B460022494603
:102BA0002046009600F0CCF84FF4007840B1206841
:102BB0000068C00501D5C4F840800320BDE8F88F47
:102BC0002069DFF884A0B0F5804F0FD0062021687F
:102BD00000EAD51747F0F000086133465A460AF17B
:102BE0000601204600F0F4F858BB03E0E8B240F0DC
:102BF00001001CE02168E8B2086133465A4651469C
:102C0000204600F0E5F8E0B920684169816900914B
:102C1000016841F4807101605B460022494620460C
:102C2000009600F08DF80028C1D147F0F10021682E
:102C3000086133465A465146204600F0C9F800283C
:102C4000BCD00120BAE7000002000100F8B504463C
:102C5000C06A1E460D461746082807D0012805D031
:102C600010F5803F02D0206B122804D12068016843
:102C700041F480710160134600224FF0011120469B
:102C8000009600F05DF840B120680068C00502D5EC
:102C90004FF4007020640320F8BD2069B0F5804F28
:102CA0000ED00620216800EAD51040F0F00008613F
:102CB00033463A460B49204600F08AF878B902E0DC
:102CC00005F0FE0000E0E8B22168086105493346DE
:102CD0003A46891F204600F07BF80028DCD001200E
:102CE000F8BD00000800010070B516460D46044608
:102CF0001EE02046FFF71DFF08B1012070BD681CD3
:102D000016D0FEF70DFC801BA84200D885B92068BC
:102D10004069C04340070BD5002044F8300F202104
:102D20006173A073216941F0200121612073E4E700
:102D300020684069C0434007DBD4002070BD00001C
:102D40002DE9F047984617460D460446C1F307465D
:102D5000DDF820902AE000BFB8F1FF3F26D0FEF753
:102D6000DFFBA0EB0901414502D8B8F1000F1DD1EE
:102D70002068012E16D0806925EA00000004000CAE
:102D800012D00020B84211D1002044F8300F202189
:102D90006173A073216941F020012161207301203A
:102DA000BDE8F0874069E7E70120EBE72068012EE6
:102DB0000AD0806925EA00000004000C06D000203B
:102DC000B842C9D00020EBE74069F3E70120F7E7FC
:102DD0002DE9F047984616460D4604464FF0000987
:102DE0004FF0200AC1F3074723E020684069C04341
:102DF000400515D42068016841F400710160216824
:102E00006FF480604861C4F8309084F83DA084F885
:102E10003E90216C41F00401216484F83C9021E053
:102E2000701C06D0FEF77CFBA0EB0800B04203D874
:102E300016B1012F1FD021E02068012F15D0806925
:102E400025EA00000004000C18D000BF44F8309FB1
:102E500084F80DA084F80E90216941F020012161D1
:102E600084F80C900120BDE8F087406925EA000055
:102E70000004000CEAD12068406901E02068806904
:102E800025EA00000004000CAFD1ECE72DE9F04189
:102E9000002590460E460446202728E04069C0439E
:102EA000C0060CD454F8301B6FF01000486144F891
:102EB00010596777A577206A2062257714E0FEF71E
:102EC0002FFBA0EB0800B04200D886B9206840690B
:102ED000C04340060BD544F8305F6773A573206983
:102EE00040F02000206125730120BDE8F0812068BA
:102EF0004169C9434906D1D40020F6E770B51646AA
:102F00000D4604461EE02046FFF713FE08B10120DF
:102F100070BD681C16D0FEF703FB801BA84200D8CA
:102F200085B920684069C04300060BD5002044F8ED
:102F3000300F20216173A073216941F020012161CC
:102F40002073E4E720684069C0430006DBD400201A
:102F500070BD0000194808B5016841F40011016016
:102F6000016801F400110091016841F480010160E1
:102F70000068002200F48000009005211020FEF778
:102F8000A9FE1020FEF798FE002205211120FEF771
:102F9000A1FE1120FEF790FE002205213A20FEF747
:102FA00099FE3A20FEF788FE002205214620FEF712
:102FB00091FEBDE808404620FEF77EBE3038024054
:102FC00010B5144800F089FE134C124A10216061BC
:102FD000183A082000F0F8FD0E4A2061A83A0021B6
:102FE0000E4800F0CFFE0B4A2060843A00210C48C6
:102FF00000F0C8FE074A6060603A0021094800F00E
:10300000C1FE044AA0603C3A0021074800F0BAFE25
:10301000E06010BD845C0008000000207D330008E3
:1030200085330008FD33000801340008F0B587B08F
:1030300014216846FDF788FB29480024016841F007
:1030400080010160016801F080010591016841F093
:1030500001010160016801F001010591016841F081
:103060000201016000681F4E00F00200059001227D
:1030700030213046FEF74FFA1B4F0022012138461F
:10308000FEF749FA01254FF404100095CDE901043B
:1030900069463046FEF74AF90220CDE90004694648
:1030A00030460294FEF742F930200090CDE90154F9
:1030B000694630460394FEF739F90095CDE901548D
:1030C000694638460394FEF731F9002205210620AF
:1030D000FEF700FE0620FEF7EFFD07B0F0BD000092
:1030E0003038024000000240000402400D4810B594
:1030F0000B4901600C49416000214FF4804281601E
:10310000C0E9031241618161C1610162FEF70EFAFB
:10311000002803D0BDE81040FDF7B0BE10BD000090
:1031200000540040B4000020A08601000C4810B5F7
:103130000A4901604FF4E1314160002181600C22B5
:10314000C160C0E904128161C161FFF707FB00287B
:1031500003D0BDE81040FDF791BE10BD0010014046
:10316000080100200C4810B50A4901604FF4E13114
:103170004160002181600C22C160C0E904128161BC
:10318000C161FFF7EBFA002803D0BDE81040FDF75E
:1031900075BE10BD0044004050010020FEE7FEE770
:1031A00092B002F031FB4FF00009CDE90F90B3EE81
:1031B000090ACB468DED050ADFED610A1424CDED39
:1031C000080A8DED090ACDED0A0AC8465D484FF49C
:1031D0008A71FDF7B9FA5C4D38212846FDF7B4FA3B
:1031E000002085F83600594D471E3946286800F002
:1031F0004BFD78B90026FDF7F7FC00B10126FDF77D
:10320000C2FC0028286802D000F09BFD02E000F01C
:1032100098FD16B1002001F095FD0AA909A801F05A
:103220005BFA38B99DED090A8DED050A9DED0A0A94
:103230008DED080A642110A801F070FC4CF2503AA0
:103240001BE0642110A801F069FCB4B908A905A825
:1032500001F042FA40B19DED090A8DED050A9DEDA0
:103260000A0A8DED080A07E09DED050A8DED090AB1
:103270009DED080A8DED0A0A0224641EE4B206AE32
:103280003946286800F000FD0028DAD13046FDF705
:1032900089FC0646286800F054FD002ED1D106991D
:1032A0005145CED3079A5245CBD32648FDF7E8FDCA
:1032B000244EB6F802012028C3D30521B9FBF1F250
:1032C00001FB129028B900221F480699FFF7B2FBB4
:1032D0000F90B8F1000F0CD1D6ED441A96ED421ABA
:1032E000D6ED430A96ED410A00F0A4FB83464FF069
:1032F0000A08A8F1010000F0FF080F988DF80000FF
:103300008DF801B09DED050A11488DED010A9DED86
:10331000080A00238DED020A1A466946006800F08B
:103320007FFC09489DE80E00383080E80E0009490E
:103330000120087009F1010000F0FF0981E7000099
:103340000000704224890020388A002014000020E8
:1033500010000020A8000020002807D005490978A7
:1033600029B1054B0ECB80E80E00012070470020EC
:1033700070470000A8000020708A0020012000F0A3
:10338000B6FBFBE70EB5194D194F00244FF4FA6652
:10339000334600226946286900F0E4FBC0B99DF875
:1033A00001005F280AD39DF800003238462805D86E
:1033B0001049019808441049884209D90122114650
:1033C0003846FEF7A8F802F01FFA41F28831441897
:1033D000002CDDD002F018FAA042D9D3002201213E
:1033E0003846FEF798F80024D2E7000000000020DD
:1033F000000402400000F0BDCDCC0400FFF7D0BEB9
:10340000C4B000244FF4FA65FDF7D6FAFDF774FB5B
:10341000FDF778FCAE1002E0304600F068FBFDF7E7
:10342000FDFA0028F8D0322120A8FDF78DFC02F02B
:10343000EBF9001BA84213D341A8FFF78DFF60B141
:103440008022694641A8FDF7F5FA002805DD6846A7
:10345000FDF798FC04A0FDF795FC02F0D5F90446B1
:103460000A2000F044FBDEE70D0A000010B54FF023
:10347000E020006902F0BAF9012803D0BDE810404D
:1034800001F062BD10BD000030B593B03021684638
:10349000FDF75AF914210CA8FDF756F91C48002530
:1034A000016841F080510160006800F08050119087
:1034B0001848016841F4404101600068022400F4AA
:1034C0004040119001200090000401908001CDE95E
:1034D00006400C2008906020CDE9090404200B90E0
:1034E0006846FEF735FD08B172B6FEE70CA90F205D
:1034F00081E831004FF480500F90109003210CA808
:10350000FEF71AFC002801D072B6FEE713B030BDFA
:1035100040380240007000400248016841F47001E8
:103520000160704788ED00E00148FEF72EBF000003
:1035300018030020F0B502681F4B204C204D214E8F
:103540004FF0804C984207D0604505D0A04203D090
:10355000A84201D0B04203D122F070074A683A4332
:10356000984210D060450ED0A0420CD0A8420AD09C
:10357000B04208D0144CA04205D0144CA04202D056
:10358000134CA04203D122F44074CA6822434C6910
:1035900022F0800222438C68C4620C6884629842E4
:1035A00001D109690163016841F004010160012151
:1035B00041610260F0BD00000000014000040040D5
:1035C00000080040000C0040004001400044014061
:1035D0000048014010B5806B0021C185FEF77CFFDB
:1035E00010BD70B5846B2068406994F84110C0F339
:1035F000C0100025212904D118B1E584204600F02F
:10360000B4F82068406994F84210C0F38010222971
:1036100004D118B1E585204600F080F8606C40F0D8
:10362000100060642046FEF757FF70BD10B50146DC
:10363000806B096809684FF00002C9052ED4C28565
:1036400001680C3151E8003F23F4807341E80034F5
:10365000002CF5D10168143151E8003F23F001033B
:1036600041E80034002CF5D10168143151E8003FE5
:1036700023F0400341E80034002CF5D1202180F8EC
:103680004210016B012909D101680C3151E8003F5A
:1036900023F0100341E80034002CF5D14263016BA4
:1036A000012902D0FFF76CF910BD818DFEF713FFE1
:1036B00010BD10B5806B01214163016B012902D05F
:1036C000FFF75FF910BD818D4908FEF704FF10BDBB
:1036D00010B50146806B09680968C90516D4002138
:1036E000C1840168143151E8002F22F0800241E8C2
:1036F0000023002BF5D101680C3151E8002F42F076
:10370000400241E80023002BF5D110BDFFF77CF902
:1037100010BD10B5806BFFF78BF910BD01680C313F
:1037200051E8002F22F4907241E80023002BF5D1DC
:103730000168143151E8002F22F0010241E8002312
:10374000002BF5D1016B012909D101680C3151E839
:10375000002F22F0100241E80023002BF5D1202198
:1037600080F8421000210163704701680C3151E874
:10377000002F22F0C00241E80023002BF5D12021C8
:1037800080F84110704708B590F84210222901D006
:10379000022008BD82684FF480539A4201D101692A
:1037A00021B1816A9A421BD04AB10AE00268816A5B
:1037B0005268C2F308020A80816A891C08E0026923
:1037C00072B10268526802F07F020A70816A491C75
:1037D0008162C18D491E0904090CC18503D01BE01B
:1037E00002685268F1E70168CA6822F02002CA60E4
:1037F0000168CA6822F48072CA6001684A6922F0CE
:1038000001024A61202180F8421000214163026BCD
:10381000012A03D0FFF7B4F8002008BD0163016856
:103820000C3151E8002F22F0100241E80023002B58
:10383000F5D101680A68D20602D50A684968009184
:10384000818DFEF748FEE7E770B504460068016920
:10385000E26821F44051114301612169A068E269E5
:1038600008436169114308432168CA6849F20C633F
:103870009A430243CA6020684169A26921F44071F9
:103880001143416131492068884202D03049884261
:1038900002D1FEF71BFB01E0FEF708FBE269002303
:1038A000192164253226B2F5004F626828D0A0FBAA
:1038B0000101930F9200FCF747FD0146B0FBF5F0C4
:1038C0006FF01802504301EB800006EB0010B0FBD4
:1038D000F5F000F0F002B1FBF5F002EB0012B1FBE5
:1038E000F5F06FF01803584301EB800006EB001071
:1038F000B0FBF5F000F00F0021681044886070BD47
:10390000A0FB010192185B41FCF71EFD0146B0FBD4
:10391000F5F00201B1FBF5F06FF01803584301EB2D
:10392000800006EBC000B0FBF5F000F0F80002EB01
:103930004002B1FBF5F0584301EB800006EBC000FC
:10394000B0FBF5F000F00700D6E7000000100140E2
:103950000014014038B58162044682850020134678
:103960006064222284F84220E56B1F4AEA63E56B1B
:103970001E4A2A64E56B1E4AEA64E26B10650A4639
:103980002168E06B091DFDF779FC30B110206064FF
:10399000202084F84200012038BD2068016840687A
:1039A0000090206948B120680C3050E8001F41F4B5
:1039B000807140E80012002AF5D12068143050E8E8
:1039C000001F41F0010140E80012002AF5D12068F3
:1039D000143050E8001F41F0400140E80012002A76
:1039E000F5D1002038BD00002D360008B3360008A0
:1039F000E33500080148FEF771BD00000801002012
:103A0000FDF75EB9FEE70907090E002804DB00F1A7
:103A1000E02080F80014704700F00F0000F1E02073
:103A200080F8141D704730380A2801D201207047F1
:103A30000020704710EE900A4FF07E51884207DB5D
:103A400011EE900A884203DB11EE100A884201DA77
:103A50000020704780EE202A1749C1EE210A9FED11
:103A6000141A82EE200ADFED110A60EE200A60EEE1
:103A7000800A40EE010A9FED0F0A30EE800A10EE38
:103A8000100A884201DD9FED0D0AB5EEC00AF1EE85
:103A900010FA01D29FED0A0AF6EE000A30EE200A73
:103AA000BCEEC00A10EE100AC0B27047713D34C2BD
:103AB000FED4F241A4B0BD420000C8420000C8429A
:103AC00000000000FEF776F8FFF7DEFCFFF7AEFA25
:103AD000FFF740FAFFF70AFBFFF728FBFFF742FB6F
:103AE00000F012F8FFF76CFA00F020F8FEE710B5CE
:103AF000EFF3058111B16FF0050403E0002408B174
:103B000000F0E6FF204610BDEFF3058010B16FF026
:103B1000050070470448016811B14FF0FF3070474D
:103B200001210160002070477800002010B5EFF3FC
:103B3000058010B16FF0050010BD0848016801292B
:103B400002D04FF0FF3010BD054A002182F8141D4D
:103B50000221016001F0B2F8002010BD78000020C1
:103B60000BE000E0F8B51D466FF003026FF00206AF
:103B70004FF00004EFF30583A3B1F0B1E9B1E5B96B
:103B8000002200926A4601F06FFC012817D10098CC
:103B9000B0B10C494FF080500860BFF34F8FBFF3B6
:103BA0006F8F0DE048B141B12A4601F0C1FB0128F9
:103BB00006D025B16FF0010402E0144600E034465F
:103BC0002046F8BD04ED00E0F8B514464FF00005BE
:103BD000EFF3058212BB08B301B3A4B1D4E90232FA
:103BE00063B1502A1AD32269C2B1676900FB01F69A
:103BF000B74213D3009501F0F6F907E072B92269D4
:103C000062B9626952B9002201F0CCF9050005D011
:103C10000CB1216800E0002100F024FF2846F8BD27
:103C2000F8B51D466FF003026FF002064FF0000476
:103C3000EFF30583ABB100B3F9B1F5B90022134638
:103C400000926A4601F0F6FA012818D10098B8B13E
:103C50000C494FF080500860BFF34F8FBFF36F8F58
:103C60000EE050B149B100232A4601F033FA012891
:103C700006D025B16FF0010402E0144600E034469E
:103C80002046F8BD04ED00E02DE9F0410D46014667
:103C900021F0010001F001014FF00004EFF3058273
:103CA0000AB1A41F16E048B100296FF001066FF0B9
:103CB0000207294608D001F0E1FC07E06FF0030499
:103CC00008E035B1344605E001F01CFC0128F8D1CC
:103CD00000E03C462046BDE8F08170B505464FF057
:103CE0000004EFF3058050BB0DB1686800E00020D0
:103CF000C10701D0012600E0002600071FD46DB1E6
:103D0000D5E9021021B1502819D31EB1042002E0D8
:103D100020B114E0012001F038F905E00EB10420D3
:103D200000E0012001F026F9040008D00DB1296857
:103D300000E0002100F096FE0EB144F001042046A0
:103D400070BD70B5014621F0010001F001014FF096
:103D50000004EFF305820AB1A41F11E028B16FF04F
:103D6000020529B101F0C5FA07E06FF0030407E08E
:103D700000231A46194601F0ADF9012800D02C465F
:103D8000204670BD2DE9FF414FEA01034FF00005C9
:103D9000EFF30581039549BB40B380271821002428
:103DA0004AB3166806B1344696691EB13146761E8E
:103DB000382E02D21679F60703D0002004B0BDE8F1
:103DC000F081566906B1B708D2F808C0BCF1000FFF
:103DD0000DD0D5685C2D18D312693AB136B18DE893
:103DE00006103A46214601F0D0FC03900DE0D6685B
:103DF0005EB912694AB903AACDE90012BAB22146E6
:103E000001F096FC012800D003950398D6E7000046
:103E10002DE9F041134C0F460546E6682068001D69
:103E200000F022FD681C07D137B12168BDE8F041E0
:103E30000D48091D00F068BD20683544B542456055
:103E4000216805D2A06BBDE8F041091D00F044BD1A
:103E5000606B091D00F040FDA06A854200D2A5629A
:103E6000BDE8F08128000020500800202DE9F04135
:103E7000054600F055FD2D4CA068401CA060206850
:103E80002B4F10B1606930B32BE02560A06801288A
:103E900027D1002606EB860007EB800000F00EFD20
:103EA000761C382EF6D3234800F008FD2148143044
:103EB00000F004FD1F48283000F000FD1D483C3094
:103EC00000F0FCFC1B48503000F0F8FC194860631F
:103ED0001430A06305E02068E96AC06A884200D80F
:103EE0002560606A401C60626864E86A21698842F3
:103EF00000D9206100EB800007EB8000291D00F055
:103F000003FD00F02DFD606900280CD02068E96AEF
:103F1000C06A884207D208494FF080500860BFF35A
:103F20004F8FBFF36F8FBDE8F081000028000020A5
:103F3000A00300200008002004ED00E038B500F0E8
:103F4000EFFC104C2068C8B90F4800F0B7FC0E48D1
:103F5000143000F0B3FC0C48E060143020610A4BD0
:103F60000020F03B009003F1500210210A2001F0E4
:103F70003AF8206010B105A100F074FDBDE83840AA
:103F800000F0EEBC6400002054090020546D725112
:103F90000000000030B4026C0B46002A0BD0C16850
:103FA0001144C1608468A14201D30168C16030BC82
:103FB0001846FCF77CBB30BC70472DE9F041856B9F
:103FC000174604460026026C82B1C7B1E068FCF7D0
:103FD0006EFBE168206C091AE1602268914202D20E
:103FE000A168081AE060022F16D017E02068A8B96F
:103FF000A06801F073FC06460020A0600EE0606837
:10400000FCF755FB216C606808446060A168884239
:1040100004D32068606001E005B16D1E6D1CA563CE
:104020003046BDE8F08110B5044690F8590058B10B
:1040300001280CD002280FD0502080F31188BFF344
:104040004F8FBFF36F8FFEE7206B00F09DFC204683
:10405000BDE8104000F098BC10BD00000F4847F6C6
:10406000F001420705D0C01D0C4A20F00700821A5B
:10407000891A0B4A00230144C2E900030839183A9F
:1040800021F0070111604B600B600B1AC0E90013AF
:1040900093604FF00040536050617047341000202F
:1040A00094000020144E154CA6F29C474FF0805807
:1040B000DFF84C9012E000BF00F032FCF068C568F9
:1040C000281D00F0D1FBA068401EA0606068401E63
:1040D000606000F045FC2846FFF7A5FF60680028F7
:1040E000EAD138680128F9D9C9F80080BFF34F8FA9
:1040F000BFF36F8FF2E700003C080020280000208B
:1041000004ED00E0002807D00021816001600B462B
:104110000A46C16000F0DEBF7047000070B51D4662
:10412000049C51B1C4F80020C4E90F0101212046CC
:1041300000F08CFF84F84C5070BD2460F4E7000060
:104140002DE9F05F8846DDE90B9415468346910022
:104150009A460A9EA522206BFCF7EEFA6FF0030147
:10416000206B01EB8501084420F00707780707D092
:10417000502080F31188BFF34F8FBFF36F8FFEE79E
:104180000025B8F1000F0FD05FF00000221818F8DA
:10419000001082F8341018F8001011B1401C1028DB
:1041A000F4D384F8435001E084F83450382E00D31F
:1041B0003726E662C4E91365201D00F08AFB04F18E
:1041C000180000F086FB2461C6F138006462A0612B
:1041D000656584F8585052465946384600F066FAEC
:1041E0002060B9F1000F01D0C9F80040BDE8F09F90
:1041F00030B5114900E011460A688242FBD34B6892
:104200005C18844203D140681844486008464368FB
:104210001C18944209D1084C183C2468A24209D0C9
:1042200052681A4442600A6812680260814200D0F3
:10423000086030BD0460F9E79400002070B50024E8
:1042400041600B4D0061914206D8D11A82699142BA
:1042500006D2011D286907E09A4203D2994201D390
:10426000012403E0011DE86800F036FB204670BD24
:104270006400002010B5044600F052FBA06B28B18A
:104280005FF0000400F06CFB204610BD0124F9E74C
:1042900030B589B03C4D6EE00498002806DADDE9BF
:1042A0000601059A90470498002864DB069C606923
:1042B00010B1201D00F0D8FA03A800F0D7F802468C
:1042C00004980A2857D2DFE800F00505052D334A87
:1042D00005052D3394F8280040F0010084F82800EB
:1042E0000599A069059B01442046FFF7A7FF68B325
:1042F000216A2046884794F8280040073BD50020D3
:1043000000900598A169002342181946204601F043
:104310002BFCD8B9502080F31188BFF34F8FBFF327
:104320006F8FFEE714F8280F20F00100207022E0C4
:1043300094F8280040F0010084F828000598A06156
:1043400028B1811813462046FFF778FF13E050206C
:1043500080F31188BFF34F8FBFF36F8FFEE794F8A0
:104360002800810703D4204600F00EFB03E020F074
:10437000010084F82800002204A9286800F0D8FF72
:10438000002889D109B030BD640000202DE9FC412E
:104390000F46054600F024FD01A800F067F804462A
:1043A000019818B101F04EFBBDE8FC81254EAFB17C
:1043B00030690068D0B30027291B3A46306800F006
:1043C00065FB01F03FFB0028EED11F494FF0805004
:1043D0000860BFF34F8FBFF36F8FE5E7A542EBD8BF
:1043E00001F030FBF0682746C068C468201D00F06B
:1043F0003BFA94F82800410719D5A0692B464119CA
:104400003A462046FFF71AFFA8B1002003460146AE
:1044100000902A46204601F0A7FB60B9502080F3A7
:104420001188BFF34F8FBFF36F8FFEE707E020F0D7
:10443000010084F82800216A20468847B4E7012754
:10444000BAE700006400002004ED00E00648416B7C
:10445000096829B1416BC968C968496881627047B8
:104460004FF0FF31FAE700002800002070B5054644
:1044700001F0CAF9064E0446B068844203D200F047
:1044800009F8012000E0002028602046B46070BDDB
:1044900064000020F8B5194D20E0C068C4680668C3
:1044A000201D00F0E1F9216A2046884794F8280091
:1044B000400713D5A0693044B04206D9246160603A
:1044C000211DE86800F008FA08E0002003460146D4
:1044D00000903246204601F047FB38B1E868016899
:1044E0000029DAD12969C5E90310F8BD502080F30D
:1044F0001188BFF34F8FBFF36F8FFEE7640000207A
:1045000008484068401C4FF0500080F3118804D0E8
:10451000BFF34F8FBFF36F8FFEE7BFF34F8FBFF334
:104520006F8FFEE79C000020074CE068016841B1F6
:10453000C0680021D0F80000FFF728FFFFF7A8FEB1
:10454000F3E701210020F7E7640000202DE9F041A6
:10455000044600F0E5F994F9455004F1240609E019
:10456000606A48B1304601F035FA08B100F024FB2A
:104570006D1E6DB2002DF3DC4FF0FF3684F8456000
:1045800000F0EEF900F0CCF994F9445004F1100772
:1045900009E0206948B1384601F01CFA08B100F082
:1045A0000BFB6D1E6DB2002DF3DC84F84460BDE89A
:1045B000F04100F0D5B900002DE9F0410546002793
:1045C00000F00EFC324E306808B9FFF747FD706905
:1045D00005424ED1C5B3083568070ED005F0070077
:1045E000C0F108000544680707D0502080F3118807
:1045F000BFF34F8FBFF36F8FFEE72DB37068854217
:1046000037D82348183001460C6801E020460C4694
:104610006168A94202D221680029F7D131688C4231
:1046200027D007682168016060680837411B10299E
:104630000FD96019420708D0502080F31188BFF3CA
:104640004F8FBFF36F8FFEE713E041606560FFF7A8
:10465000CFFD61687068401A7060B268904200D205
:10466000B060706901430020C4E90001F068401C9B
:10467000F06001F0E7F9780707D0502080F3118847
:10468000BFF34F8FBFF36F8FFEE73846BDE8F08171
:104690007C0000200449086818B10868026D521CAB
:1046A00002650868704700002800002010B5031F4D
:1046B0004FF080741C601B1F21F001011960191F4D
:1046C000044B0B6014390A60091F6FF00202443872
:1046D0000A6010BD014500082DE9F041094D0E4664
:1046E00007460124A11E2868FFF7CEFA38B93146E3
:1046F0003846FCF781FA04462868FFF722FB20467B
:10470000BDE8F0811400002077B581B015460E4653
:104710006424012301AAAE2107480094FDF778F92B
:10472000002806D12B463246AE2103480094FDF7FF
:1047300077F804B070BD0000B400002033B581B03C
:104740000D466424012301AAAE2107480094FDF719
:104750005FF908B101203EBD01232A46AE2102487F
:104760000094FDF75DF83EBDB40000201CB50223A7
:104770008DF8040064208DF80510009001AAAE2188
:104780000148FDF745F91CBDB400002070B5054691
:10479000FF20002231240FE0AB5C584000230606C6
:1047A00002D584EA400000E040005B1CDBB2C0B2EE
:1047B000082BF4D3521CD2B28A42EDD370BD000054
:1047C000F0B507462548A3B001680A6849682191F9
:1047D000C06B00684068224CC0F5807085B260886C
:1047E000854239D084216846FBF7AEFF628880207D
:1047F00095421C4962880DD9AA1A92B2ADF8802060
:10480000802A01D9ADF88000BDF88020608801447D
:10481000684614E0C2F5807296B2721992B2ADF891
:104820008020802A01D9ADF880006088324601449A
:104830006846FBF73CFF0DEB06002A460949FBF7EB
:1048400036FF6580BDF88000002805D000233A4679
:104850006946606800F0EEFC23B0F0BD5001002016
:10486000AC0000207C8A0020D0E9013201699A6006
:10487000D0E901235A604A68824201D182684A60C5
:10488000002202610868401E086008687047000046
:10489000034B036003F15C000860802010607047E8
:1048A0007C090020044B036003F15C0008604FF4B6
:1048B0008070106070470000D80B002000F10801E4
:1048C0004FF0FF32C0E90112C160016100210160B7
:1048D000704700210161704730B50B685A1C02D047
:1048E00000F1080202E0026904E0224654682568EB
:1048F0009D42FAD953684B6099608A6051600861A3
:104900000168491C016030BD42684A6093688B6051
:1049100093685960916008610168491C01607047A3
:10492000502080F31188BFF34F8FBFF36F8F0A4978
:104930004868401C486001280CD10848006810F005
:10494000FF0F07D0502080F31188BFF34F8FBFF3C4
:104950006F8FFEE7704700009C00002004ED00E030
:104960000849486828B1401E486001D180F3118889
:104970007047502080F31188BFF34F8FBFF36F8FC4
:10498000FEE700009C00002070B500282AD0164DDC
:10499000A0F1080460686969084207D1502080F3DB
:1049A0001188BFF34F8FBFF36F8FFEE722683AB1D4
:1049B000502080F31188BFF34F8FBFF36F8FFEE756
:1049C0008843606000F00CFA6068696808446860B9
:1049D0002046FFF70DFC2869401C2861BDE87040A7
:1049E00001F030B870BD00007C0000204FF0E020E6
:1049F00000210161816105494FF47A720968B1FBB8
:104A0000F2F1491E41610721016170472400002035
:104A100010B5FBF775FC114910280ED300F1E0200A
:104A200090F8F0030A78904207D2502080F3118862
:104A3000BFF34F8FBFF36F8FFEE7094800688968A7
:104A400000F4E060884207D9502080F31188BFF35A
:104A50004F8FBFF36F8FFEE710BD00009C0000205A
:104A60000CED00E010B5084B002200BF53F83240B7
:104A70001CB1521C082AF9D310BD43F8321003EBC5
:104A8000C201486010BD00006003002070B51546EB
:104A90000E460446FFF744FF94F944100020491CD9
:104AA00001D184F8440094F94510491C01D184F8DF
:104AB0004500FFF755FFA06B28B92A46314604F19F
:104AC000240000F097F82046BDE87040FFF73EBD97
:104AD00010B5020014D00F48006B38B1502080F39D
:104AE0001188BFF34F8FBFF36F8FFEE700F078F9A7
:104AF00000211046FFF78CF900F0A4FF002807D131
:104B000005494FF080500860BFF34F8FBFF36F8FA0
:104B100010BD00002800002004ED00E070B50D4637
:104B200004000BD095B11E4A106BB8B1502080F331
:104B30001188BFF34F8FBFF36F8FFEE7502080F3D4
:104B40001188BFF34F8FBFF36F8FFEE7502080F3C4
:104B50001188BFF34F8FBFF36F8FFEE700F040F96E
:104B6000D26823685919934204D98B420AD99142D9
:104B700002D807E08B42FAD9881A21600021FFF79A
:104B800047F900E0216000F05DFF002807D10549EA
:104B90004FF080500860BFF34F8FBFF36F8F70BD31
:104BA0002800002004ED00E002490A6A0260C9689A
:104BB000416070472800002001490120C86170470A
:104BC0002800002010B50C4650B109490968183179
:104BD000FFF782FE2046BDE810400121FFF718B91B
:104BE000502080F31188BFF34F8FBFF36F8FFEE724
:104BF0002800002070B514460D4668B10A490968BE
:104C00001831FFF781FE0CB14FF0FF3521462846E1
:104C1000BDE87040FFF7FCB8502080F31188BFF367
:104C20004F8FBFF36F8FFEE72800002070B50400A0
:104C30003ED0226DA2B1E06C884200D30146E06A0A
:104C4000884235D0012A33D11A4D2A6894420FD1B7
:104C5000502080F31188BFF34F8FBFF36F8FFEE7B3
:104C6000502080F31188BFF34F8FBFF36F8FFEE7A3
:104C7000E162A269002A02DBC1F13801A1610E4E96
:104C800000EB8000616906EB8000814210D1201D9D
:104C9000FFF7EAFDE06A2969884200D9286100EB44
:104CA000800006EB8000211DBDE87040FFF72CBEA0
:104CB00070BD000028000020A003002030B587B0A0
:104CC0000024039405AA04A903A80494FFF7E0FDB7
:104CD000DDE903010094CDE90110002315A1174877
:104CE000059A00F052FD164D0028E8621FD000F032
:104CF0000BFF012809D0401C19D1502080F31188E6
:104D0000BFF34F8FBFF36F8FFEE7502080F3118802
:104D1000BFF34F8FBFF36F8F4FF0FF30A8620120BA
:104D20006861EC6007B0BDE8304000F093B807B0B0
:104D300030BD000049444C4500000000A54000087B
:104D40002800002070B50446FFF7EAFD214D04B9A4
:104D50002C68201DFFF788FDA06A18B104F1180027
:104D6000FFF782FD211D1C48FFF7CEFD94F8580087
:104D70000026012801D184F85860FFF7F1FD686929
:104D800028B1FFF7CDFDFFF761FBFFF7E9FD2868CC
:104D9000844213D1686990B1286B38B1502080F3F8
:104DA0001188BFF34F8FBFF36F8FFEE70B494FF0B2
:104DB00080500860BFF34F8FBFF36F8F70BD064800
:104DC0000068A968884201D12E6070BDBDE87040BE
:104DD00000F00EB8280000205008002004ED00E08C
:104DE0000248016B491C0163704700002800002045
:104DF000164810B5016B11B10121C16110BD002130
:104E0000C1610169124A01E0B9B1491E01EB810398
:104E100052F82330002BF7D001EB810302EB830221
:104E200002F1080453685B685360A34201D15B68D8
:104E30005360DA680260016110BD502080F3118870
:104E4000BFF34F8FBFF36F8FFEE7000028000020F5
:104E5000A00300201CB537480168374A914207D1AA
:104E6000502080F31188BFF34F8FBFF36F8FFEE7A1
:104E700000683149491E884207D1502080F31188CB
:104E8000BFF34F8FBFF36F8FFEE72C490878019077
:104E9000FF20087008788DF800009DF800009DF84C
:104EA000002000F0F000904207D0502080F31188DD
:104EB000BFF34F8FBFF36F8FFEE79DF80000204CCC
:104EC00000F0500020700720A06005E09DF8002051
:104ED00052008DF80020401E9DF800201206F5D4E7
:104EE000A060032807D0502080F31188BFF34F8FB4
:104EF000BFF36F8FFEE74FF44070A0600198087019
:104F00000C482030016841F470010160016841F0F3
:104F100070410160FFF76AFD00206060FBF7B8F99F
:104F20000848016841F040410160FBF79DF900200D
:104F30001CBD000000ED00E071C20F4100E400E084
:104F40009C00002034EF00E010B5502080F3118861
:104F5000BFF34F8FBFF36F8F00F05CFC18B10449B3
:104F60004FF080500860002080F3118810BD0000D1
:104F700004ED00E010B502460021012000F012F817
:104F80000446FFF7BFF8204610BD38B50B46002297
:104F900000901146012000F026F80446FFF7B2F811
:104FA000204638BDF8B517460E46050013D005FB60
:104FB00006F05030FFF700FB04000AD0002084F810
:104FC000460004F150023B46314628460094FFF764
:104FD000A5F82046F8BD502080F31188BFF34F8F0D
:104FE000BFF36F8FFEE738B5049D18B153B1CAB156
:104FF00081B120E0502080F31188BFF34F8FBFF3C1
:105000006F8FFEE7502080F31188BFF34F8FBFF3FF
:105010006F8FFEE7502080F31188BFF34F8FBFF3EF
:105020006F8FFEE739B1502080F31188BFF34F8FA7
:10503000BFF36F8FFEE750241C46012384F84630EF
:105040002B460094FFF76AF8204638BD70B50D4630
:10505000040025D0FFF764FCD4E90F20216802FB8F
:105060000011A1600021A163216861600A46D4E9B2
:105070000F01401E00FB0121E16021464FF0FF308F
:1050800001F8440F487004F110008DB1FFF716FCD1
:1050900004F12400FFF712FCFFF762FC012070BD51
:1050A000502080F31188BFF34F8FBFF36F8FFEE75F
:1050B00021690029F0D000F08DFC0028ECD00449D3
:1050C0004FF080500860BFF34F8FBFF36F8FE3E75F
:1050D00004ED00E02DE9FF4782B01D468A464FF0FF
:1050E0000008040003D0BAF1000F08D011E05020EE
:1050F00080F31188BFF34F8FBFF36F8FFEE7206CF3
:1051000038B1502080F31188BFF34F8FBFF36F8FFA
:10511000FEE7022D0AD1E06B012807D0502080F372
:105120001188BFF34F8FBFF36F8FFEE700F05EFB78
:105130003F4F4FF000094FF0805648B9049838B1FE
:10514000502080F31188BFF34F8FBFF36F8FFEE7BE
:10515000FFF7E6FBA06BE16B884207D3022D05D079
:105160000498D0B1B8F1000F1AD01EE02A4651467B
:105170002046FEF722FF616A19B104F1240000F015
:1051800029FC20B13E60BFF34F8FBFF36F8FFFF755
:10519000E7FB012006B0BDE8F087FFF7E1FB22E066
:1051A0006846FFF701FD4FF00108FFF7D9FBFFF755
:1051B00017FEFFF7B5FB94F94400401C01D184F8B9
:1051C000449094F94500401C01D184F84590FFF7C4
:1051D000C7FB04A9684600F071FA30B12046FFF71A
:1051E000B5F900F02FFC0020D4E7FFF799FBA06B86
:1051F000E16B884213D1FFF7B3FB04F1100004996F
:10520000FFF7E0FC2046FFF7A1F900F01BFC0028A7
:105210009ED13E60BFF34F8FBFF36F8F98E7FFF7CC
:105220009FFB2046FFF792F900F00CFC90E700008E
:1052300004ED00E02DE9F0471F4690468946040042
:1052400003D0B9F1000F08D011E0502080F311888D
:10525000BFF34F8FBFF36F8FFEE7206C38B1502044
:1052600080F31188BFF34F8FBFF36F8FFEE7022FDC
:105270000AD1E06B012807D0502080F31188BFF3DA
:105280004F8FBFF36F8FFEE7FFF7C2FB5020EFF3A6
:10529000118680F31188BFF34F8FBFF36F8FA06B20
:1052A000E16B884206D3022F04D0002086F31188D8
:1052B000BDE8F08794F94550A06B3A464946204630
:1052C000FEF77BFE681C04D06D1C84F8455001205D
:1052D000ECE7606A0028FAD004F1240000F07AFBC1
:1052E0000028F4D0B8F1000FF1D00121C8F8001067
:1052F000EDE710B5040009D000F072FAA168884209
:1053000014D1E068401EE06008D00DE0502080F32A
:105310001188BFF34F8FBFF36F8FFEE700231A464C
:1053200019462046FFF7D6FE012010BD002010BD13
:105330002DE9F747002683B08A46040003D0BAF16E
:10534000000F08D011E0502080F31188BFF34F8F79
:10535000BFF36F8FFEE7206C38B1502080F31188C7
:10536000BFF34F8FBFF36F8FFEE700F03FFADFF818
:10537000F4804FF000094FF0805748B9059838B1D4
:10538000502080F31188BFF34F8FBFF36F8FFEE77C
:10539000FFF7C6FAA56BC5B151462046FEF7FAFDE8
:1053A0006D1EA563206950B104F1100000F012FBDE
:1053B00028B1C8F80070BFF34F8FBFF36F8FFFF7AE
:1053C000CFFA012006B0BDE8F087059808B11EB1FC
:1053D00006E0FFF7C5FA27E06846FFF7E5FB012680
:1053E000FFF7BEFAFFF7FCFCFFF79AFA94F94400C6
:1053F000401C01D184F8449094F94500401C01D12F
:1054000084F84590FFF7ACFA05A9684600F056F914
:10541000002820460AD0FFF799F800F013FB204639
:10542000FEF728FF0028B3D00020CBE7FEF722FFCD
:1054300090B104F124000599FFF7C4FB2046FFF763
:1054400085F800F0FFFA0028A2D1C8F80070BFF379
:105450004F8FBFF36F8F9BE72046FFF777F800F081
:10546000F1FA95E704ED00E02DE9F0479046894612
:10547000040003D0B9F1000F08D011E0502080F3F0
:105480001188BFF34F8FBFF36F8FFEE7206C38B1E9
:10549000502080F31188BFF34F8FBFF36F8FFEE76B
:1054A000FFF7B6FA5020EFF3118680F31188BFF3AF
:1054B0004F8FBFF36F8FA76BF7B194F944504946F4
:1054C0002046FEF767FD7F1EA763681C04D06D1C95
:1054D00084F84450012010E020690028FAD004F13B
:1054E000100000F077FA0028F4D0B8F1000FF1D0E6
:1054F0000121C8F80010EDE7002086F31188BDE80F
:10550000F08700002DE9F343002683B00400354600
:1055100009D0206C78B1502080F31188BFF34F8FF1
:10552000BFF36F8FFEE7502080F31188BFF34F8FDA
:10553000BFF36F8FFEE700F059F9DFF83C814FF0C1
:1055400000094FF0805748B9049838B1502080F3D3
:105550001188BFF34F8FBFF36F8FFEE7FFF7E0F9BE
:10556000A06BC8B1401EA063206810B9FFF792F885
:10557000A060206950B104F1100000F02BFA28B1AE
:10558000C8F80070BFF34F8FBFF36F8FFFF7E8F9D4
:10559000012005B0BDE8F083049808B166B10FE0C2
:1055A0003DB1502080F31188BFF34F8FBFF36F8F51
:1055B000FEE7FFF7D5F95DE06846FFF7F5FA01264B
:1055C000FFF7CEF9FFF70CFCFFF7AAF994F94400B6
:1055D000401C01D184F8449094F94500401C01D14D
:1055E00084F84590FFF7BCF904A9684600F066F816
:1055F0000028204612D0FEF7A9FF00F023FA20462B
:10560000FEF738FE0028A9D09DB3FFF789F9606A3C
:1056100050B3206B0068C0F1380126E0FEF72AFE87
:10562000E0B1206838B9FFF77BF9A06800F096F97F
:105630000546FFF795F904F124000499FFF7C2FA33
:105640002046FEF783FF00F0FDF9002886D1C8F858
:105650000070BFF34F8FBFF36F8F7FE72046FEF7D9
:1056600075FF00F0EFF979E70021A068FFF7DEFA97
:105670009FE7FFE700208CE704ED00E070B50D46E2
:10568000040009D000F0ACF8A16888420CD1E068B1
:10569000401CE060012070BD502080F31188BFF3F2
:1056A0004F8FBFF36F8FFEE729462046FFF72AFF93
:1056B0000028F0D0E168491CE16070BD2DE9F0419F
:1056C0000C46050011D0C4B1FFF72AF9174BDA6870
:1056D0006E682068911B471C17D02F681B6A9F4279
:1056E00019D0964217D8012410E0502080F3118879
:1056F000BFF34F8FBFF36F8FFEE7502080F3118809
:10570000BFF34F8FBFF36F8FFEE70024FFF728F939
:105710002046BDE8F081884205D9401A206028461D
:10572000FFF742FAF1E700202060DCE728000020C4
:105730002DE9FF5F8346DDE90E87994616468A46C6
:105740009000FEF739FF05001CD05C20FEF734FF07
:10575000040014D00020256384F85900CDE90240EC
:10576000CDE900874B46324651465846FEF7E8FCE5
:105770002046FEF77BFB012004B0BDE8F09F2846E1
:10578000FFF702F94FF0FF30F6E7F0B585B0DDE93D
:105790000B640A9DA6B1DCB15C2700972663022644
:1057A00084F85960002604AFCDE90246CDE90057E0
:1057B000FEF7C6FC2046FEF759FB049805B0F0BD85
:1057C000502080F31188BFF34F8FBFF36F8FFEE738
:1057D000502080F31188BFF34F8FBFF36F8FFEE728
:1057E0000148006870470000280000200548416912
:1057F00019B1006B18B100207047012070470220DA
:1058000070470000280000200148C0687047000071
:10581000280000202DE9F0412E4C0027206B28B1F4
:10582000A069401CA0613846BDE8F081E668761C9E
:10583000E66013D1606B006838B1502080F31188A6
:10584000BFF34F8FBFF36F8FFEE7606BA16B616398
:10585000A063206A401C2062FEF7F8FDA06ADFF812
:105860007880864209D3606B0068A0B1606BC06825
:10587000C5686868864211D2A0622068C06A00EBE1
:10588000800158F82100012800D90127E06900288B
:10589000C9D00127C7E74FF0FF30EDE7281DFEF71D
:1058A000E3FFA86A18B105F11800FEF7DDFFE86A0A
:1058B0002169884200D9206100EB800108EB81005A
:1058C000291DFFF721F8E86A2168C96A8842CAD30E
:1058D0000127C8E728000020A003002070B50400BD
:1058E0004FF0000133D01B4D2868844207D0502070
:1058F00080F31188BFF34F8FBFF36F8FFEE7206DEA
:1059000038B1401E2065E36CE26A9A421FD040B174
:105910001DE0502080F31188BFF34F8FBFF36F8FCE
:10592000FEE7201DFEF7A0FFE06CE062C0F138004A
:10593000A061E06A2969884200D92861064900EB24
:10594000800001EB8000211DFEF7DEFF01210846EB
:1059500070BD000028000020A003002070B50400E6
:105960004FF000002BD0194DE16A2A68D26A9142AB
:1059700026D2A069002804DB2868C06AC0F138007C
:10598000A061134E01EB8101606906EB8101884241
:1059900011D1201DFEF768FF2868C06AE0622969FE
:1059A000884200D9286100EB800006EB8000211DB1
:1059B000FEF7AAFF02E02868C06AE062012070BD1D
:1059C000E16C2A68D26A9142F8D370BD28000020A9
:1059D000A003002070B5C068C46854B104F1180079
:1059E0000646FEF741FF144D286B50B1314613486F
:1059F00015E0502080F31188BFF34F8FBFF36F8FF6
:105A0000FEE7201DFEF730FFE06A2969884200D9D1
:105A100028610B4900EB800001EB8000211DFEF79F
:105A200073FFE06A2968C96A884202D90120E861E7
:105A300070BD002070BD0000280000202808002054
:105A4000A00300202DE9F0472C4D00242746286BA9
:105A500038B1FEF765FF286B401E2863286B40B104
:105A600046E0502080F31188BFF34F8FBFF36F8F54
:105A7000FEE7A968224E0120D1B3A6F591698046C0
:105A80003068E0B1F068C46804F11800FEF7ECFE7D
:105A9000201DFEF7E9FEE06A2969884200D92861E5
:105AA00000EB800109EB8100211DFEF72DFFE06A6C
:105AB0002968C96A8842E3D3C5F81C80E0E70CB1C5
:105AC000FEF7C4FCAC694CB14FEA0806FFF7A2FE32
:105AD00000B1EE61641EF9D10020A861E86938B117
