:020000040800F2
:10000000E09100200903000851380008633000081F
:100010004D380008110D000849420008000000009A
:10002000000000000000000000000000490200087D
:100030005F0E000800000000A5020008E539000876
:1000400023030008230300082303000823030008F8
:100050002303000823030008610E0008230300089F
:1000600023030008230300082303000823030008D8
:1000700023030008230300082303000823030008C8
:10008000150D0008250D00082303000800000000DE
:100090000000000000000000000000002303000832
:1000A0002303000823030008230300082303000898
:1000B0002303000823030008C13A000823030008B3
:1000C0002303000823030008230300082303000878
:1000D00023030008314200084142000800000000EC
:1000E0002303000823030008230300080000000086
:1000F00000000000000000000000000023030008D2
:100100000000000023030008230300082303000865
:1001100000000000000000000000000000000000DF
:100120002303000823030008350D000823030008FB
:100130002303000800000000000000000000000091
:100140000000000000000000000000002303000881
:100150002303000823030008450D000823030008BB
:100160002303000823030008000000000000000033
:10017000000000000000000000000000000000007F
:100180000000000023030008000000000000000041
:10019000230300082303000800F002F800F044F8ED
:1001A0000AA090E8000C82448344AAF10107DA45D2
:1001B00001D100F039F8AFF2090EBAE80F0013F0E0
:1001C000010F18BFFB1A43F001031847786C0000B9
:1001D000986C0000103A24BF78C878C1FAD852074A
:1001E00024BF30C830C144BF04680C6070470000B1
:1001F0000023002400250026103A28BF78C1FBD830
:10020000520728BF30C148BF0B607047642900F017
:100210002F81752900F02C81002070471FB506F052
:1002200071FD1FBD10B510BD00F08BFB1146FFF72F
:10023000F5FF04F047F800F0A9FB03B4FFF7F2FF65
:1002400003BC00F0B1FB00002C4B19680868B0E853
:10025000F04F80F30988BFF36F8F4FF0000080F3F9
:10026000118870470000000008480068006880F3AB
:1002700008884FF0000080F3148862B661B6BFF3BF
:100280004F8FBFF36F8F00DF00BF00BF08ED00E0AE
:10029000DFF80C00016841F470010160704700BF95
:1002A00088ED00E0EFF30980BFF36F8F134B1A68FE
:1002B0001EF0100F08BF20ED108A20E9F04F1060EB
:1002C00009B44FF0500080F31188BFF34F8FBFF394
:1002D0006F8F05F03FFC4FF0000080F3118809BCE0
:1002E00019680868B0E8F04F1EF0100F08BFB0ECB6
:1002F000108A80F30988BFF36F8F704728000020B1
:10030000EFF305807047000009488047094800471F
:10031000FEE7FEE7FEE7FEE7FEE7FEE7FEE7FEE7B5
:10032000FEE7FEE704480549054A064B7047000012
:10033000AD3A000899010008E08B0020E091002010
:10034000E08D0020E08D002053EA020C00F069806F
:100350002DE9F04B4FF00006002B1FBFB3FA83F5D9
:1003600003FA05F424FA05F65E4012BF1643B2FA0A
:1003700082F502FA05F4C5F120051EBF22FA05FC3C
:1003800044EA0C04203556EA044C4FEA144418BFE2
:10039000641C4FF000084FF00009904271EB030C11
:1003A00039D3002919BFB1FA81F701FA07F6B0FA7B
:1003B00080F700FA07F6C7F120071EBF20FA07FCF6
:1003C00046EA0C062037B6FBF4FCA7EB0507103F06
:1003D00007F01F0BCBF120060CFA0BFB2CFA06F6EC
:1003E00044BFB3460026202FA4BF5E464FF0000B4B
:1003F0005BEA060C08BF4FF0010B19EB0B09ABFBD6
:10040000027C48EB0608C01B06FB02CC0BFB03CCAE
:1004100071EB0C01C1E70B46024641464846BDE878
:10042000F08B13B54FF000004FF00001AFF30080E8
:10043000BDE81C40704700000FB47CB50C0009AA51
:10044000009001D02044401E084B7B446946019037
:10045000089800F002FA05461CB10020694600F039
:100460000FFA28467CBC5DF814FB00003D04000038
:100470002DE9F0410646002410687529314616A57D
:1004800010D0AFF30080002802DA404213A507E045
:1004900031688A0701D512A502E0490704D511A5E4
:1004A000012401E0AFF3008000210A2206F12407B5
:1004B00009E0B0FBF2FCB0FBF2F302FB1C003030B1
:1004C00078541846491C0028F3D123462A46304662
:1004D000BDE8F04100F062B9000000002D0000000E
:1004E0002B000000200000002DE9F05F8946044643
:1004F0004FF0000ADFF874B1FB44C0F820A020469A
:10050000E1688847002874D0252806D0D4E9012165
:100510009047206A401C2062F1E700265F46204693
:10052000E16888472028054607DB312D05D2781978
:1005300010F8200C08B10643F1E7B00701D526F00A
:100540000406C4F81CA00027C4F818A02A2D09D05E
:10055000284603F09AFE38B304EB8708303DC8F80C
:10056000185019E059F8041B204604EB87029161EA
:10057000E1688847012F054618D1E069002820DA94
:1005800026F020061DE0D8F8180000EB800005EBEF
:1005900040003038C8F818002046E1688847054612
:1005A00003F073FE0028EED1012F0AD02E2D08D1C2
:1005B0002046E16888477F1C0546022F46F020064A
:1005C000C4DBA069002803DA404246F00106A061BE
:1005D000F00701D026F010066C2D0BD0682D09D045
:1005E0004C2D39D06A2D35D0742D35D07A2D33D09D
:1005F00016E038E0E1682F4620468847B8420546B5
:1006000009D16C2F26D04FF48060E1680643204664
:100610008847054604E06C2F1AD04FF480700643DB
:100620000DB3A5F14100192802D8203546F4006623
:100630004A462946204626604E46FFF7E7FD80B130
:1006400001280BD0F61D26F0070000F1080956E737
:100650004020E4E78020D8E70020D6E706F104092F
:100660004DE7284652E7206ABDE8F09FEC6800009D
:1006700010B5431C02E010F8011B71B18107FAD1DB
:100680004FF0013202C88C1A8C4314EAC211F9D01F
:10069000C01A0A0603D0C01E10BDC01A10BD0A043D
:1006A00001D0801E10BD0902FCD0401E10BD032ADF
:1006B00040F2308010F0030C00F0158011F8013B7F
:1006C000BCF1020F624498BF11F801CB00F8013B66
:1006D00038BF11F8013BA2F1040298BF00F801CB2A
:1006E00038BF00F8013B11F0030300F0D680083A50
:1006F000C0F0088051F8043B083A51F804CBA0E858
:100700000810F5E7121D5CBF51F8043B40F8043BAC
:10071000AFF30080D20724BF11F8013B11F801CBE1
:1007200048BF11F8012B24BF00F8013B00F801CBB2
:1007300048BF00F8012B704702F0FF0343EA032291
:1007400042EA024200F0DDB84FF0000200B5134665
:1007500094469646203922BFA0E80C50A0E80C50E1
:10076000B1F12001BFF4F7AF090728BFA0E80C5092
:1007700048BF0CC05DF804EB890028BF40F8042B8B
:1007800008BF704748BF20F8022B11F0804F18BFF8
:1007900000F8012B70477047704770472DE9F0470C
:1007A0000D4699469246044600F1240801688806E1
:1007B00004D5E06921F01001216000E00120A84289
:1007C00001DD471B00E00027A1697A1902EB09004F
:1007D000081AA0612078C00602D42046AFF300803A
:1007E000002608E0D4E901211AF806009047206AA3
:1007F000401C761C20624E45F4DB2078C0060AD5EA
:100800002046AFF3008006E0D4E901213020904774
:10081000206A401C2062381EA7F10107F4DC07E0C3
:10082000D4E9012118F805009047206A401C206295
:10083000281EA5F10105F3DC2046AFF300802078E7
:10084000000602D50220BDE8F0870120FBE700008A
:1008500001694A1C02610878704700B58FB0CDE984
:1008600001310021059105497944CDE90310114674
:100870006846FFF739FE0FB000BD0000E5FFFFFF3F
:100880000A6802F8010B0A607047D1E900239A4216
:1008900002D2531C0B601070704710B5203AC0F0A4
:1008A0000B80B1E81850203AA0E81850B1E8185071
:1008B000A0E81850BFF4F5AF5FEA027C24BFB1E8AE
:1008C0001850A0E8185044BF18C918C0BDE810401F
:1008D0005FEA827C24BF51F8043B40F8043B08BF28
:1008E0007047D20728BF31F8023B48BF11F8012BEF
:1008F00028BF20F8023B48BF00F8012B70474FF09B
:1009000000020429C0F0128010F0030C3FF41EAF67
:10091000CCF1040CBCF1020F18BF00F8012BA8BFEA
:1009200020F8022BA1EB0C01FFF710BF5FEAC17C9E
:1009300024BF00F8012B00F8012B48BF00F8012B61
:100940007047754600F02CF8AE46050069465346E0
:1009500020F00700854618B020B5FFF7E3FCBDE89E
:1009600020404FF000064FF000074FF000084FF016
:10097000000B21F00701AC46ACE8C009ACE8C009A7
:10098000ACE8C009ACE8C0098D46704710B5044614
:10099000AFF300802046BDE81040FFF74EBC0000DA
:1009A000004870477C8B002001491820ABBEFEE751
:1009B000260002007047000000B585B0142168468B
:1009C000FFF7C2FE2020009001200190002002903D
:1009D00003906946094800F0A3FC01222021074842
:1009E00000F08AFD102000900020019002906946DE
:1009F000024800F095FC05B000BD00000000024078
:100A000010B51021034800F06FFD012800D110BD82
:100A10000020FCE7000002402DE9F04F87B00446BB
:100A20000F4690461CB117B1B8F1200F04D24FF019
:100A3000FF3007B0BDE8F08F94ED010AF2EE040A32
:100A400020EE200ABDEEC00A10EE105A94ED020A04
:100A5000F2EE040A20EE200ABDEEC00A10EE106A83
:100A6000002E06DA70420A2190FBF1F201FB12001F
:100A700004E00A2096FBF0F100FB116083460A2097
:100A800096FBF0F9002D06DA68420A2190FBF1F29C
:100A900001FB120004E00A2095FBF0F100FB11506D
:100AA00006900A2095FBF0FA0698CDE9039BCDE964
:100AB00001A060780090237802A241463846FFF7F3
:100AC000BBFCB6E77B226872223A25752C22737034
:100AD0006F32223A25752C2274656D70223A256496
:100AE0002E25642C2268756D223A25642E25647D9E
:100AF0000000000010B501222021024800F0FCFC9B
:100B000010BD00000000024010B5642303228821BC
:100B1000014800F0E5FD10BDB40000202DE9FF41C3
:100B2000074688462C208DF80C0006208DF80D0015
:100B30006420022303AA882100902D4801F032F896
:100B400004461CB1204604B0BDE8F081142004F036
:100B5000EBFD6420062301AA88210090244800F0C0
:100B60009BFE04460CB12046EDE7022101A804F0EB
:100B7000C3FB9DF80610884201D00120E3E7022163
:100B80000DF1070004F0B8FB9DF80910884201D070
:100B90000120D8E79DF805009DF8041040EA0125E2
:100BA0009DF808009DF8071040EA012600EE105A53
:100BB000B8EE400ADFED0F0A60EE200A9FED0E1A34
:100BC00080EE810ADFED0D0A30EE200A87ED000A83
:100BD00000EE106AB8EE400ADFED090A20EE200AA6
:100BE000DFED050A80EE201A88ED001A0020AAE742
:100BF000B400002000002F4300FF7F47000034C2F4
:100C00000000C84238B50020009011480068006814
:100C100000F01000102807D10D480068C06800F0EF
:100C2000100008B1012000E00020044614B168461D
:100C300004F07EFB064801F0BDFE009838B14FF08D
:100C4000805004490860BFF34F8FBFF36F8F38BDEA
:100C50005001002004ED00E010B5002282210820A0
:100C600005F0B4F80D4908600846006808B900BFEF
:100C7000FEE700200A4908800A480068C06840F082
:100C8000100008490968C8604FF480720649054899
:100C900002F068F908B100BFFEE710BDAC0000200B
:100CA000B0000020500100207C8A002070B504466E
:100CB0000D462A4621460248006805F0E7FA70BD55
:100CC000AC00002070B504460D46002007490870AE
:100CD0002A462146064802F05DF902E0012003F0B1
:100CE00007FB024800780028F8D070BDB200002051
:100CF0005001002070B5044604B970BD2046FFF7CE
:100D0000B7FC85B229462046FFF7DCFF00BFF4E7B9
:100D100000BFFEE710B5024800F014F910BD000056
:100D20005802002010B5024800F00CF910BD000078
:100D3000B802002010B5024800F004F910BD000010
:100D40009801002010B5024800F0FCF810BD00002A
:100D5000F80100200146087810381823B0FBF3F2A0
:100D60000848805CC865032A05D908686FF3090044
:100D7000001D886503E008686FF309008865886DC9
:100D800070470000C86D0008014600208A6A8B6920
:100D9000CBB932B1012A0DD0022A03D0032A10D1D7
:100DA0000EE000BFCB6A03F08073B3F1807F00D107
:100DB000012007E0CB6AB3F1C07F00D1012001E040
:100DC00000E000BF34E08B69B3F5005F1AD132B1A7
:100DD000012A07D0022A03D0032A11D10AE000BF5A
:100DE00001200EE0CB6A03F08073B3F1807F00D165
:100DF000012006E0CB6AB3F1C07F00D1012000E002
:100E000000BF15E032B1012A05D0022A04D0032A1E
:100E10000CD103E000BF00BF012008E0CB6A03F063
:100E20008073B3F1807F00D1012000E000BF00BFDC
:100E3000704730B50468246824F4802405682C6069
:100E4000046863608468402C04D10468A26004686C
:100E5000E16003E00468A1600468E26030BD7047AF
:100E600010B5012000F04EFA10BD72B600BFFEE7CB
:100E700070B50446A56D00F045FB064694F83500B4
:100E8000022808D08020606500BF002084F834006C
:100E900000BF012070BD2068006820F016002168A6
:100EA00008602068406920F0800021684861206C5B
:100EB00008B9A06C28B12068006820F008002168FB
:100EC00008602068006820F001002168086010E0D8
:100ED00000F018FB801B05280BD92020606503203B
:100EE00084F8350000BF002084F8340000BF0320E0
:100EF000D0E72068006800F001000028E8D194F8ED
:100F00005C103F208840A860012084F8350000BFB5
:100F1000002084F8340000BF00BFBBE7014691F811
:100F20003500022803D08020486501207047052045
:100F300081F835000868006820F001000A68106038
:100F40000020F3E7F8B50446002000908C480068C4
:100F50004FF41651B0FBF1F7A56D2E6894F85C10B4
:100F600008208840304098B12068006800F00400F4
:100F700070B12068006820F004002168086094F8CF
:100F80005C1008208840A860606D40F0010060653A
:100F900094F85C1001208840304068B120684069B6
:100FA00000F0800040B194F85C1001208840A860F7
:100FB000606D40F00200606594F85C100420884089
:100FC000304068B12068006800F0020040B194F839
:100FD0005C1004208840A860606D40F004006065EB
:100FE00094F85C1010208840304078B32068006886
:100FF00000F0080050B394F85C1010208840A860FE
:101000002068006800F4802080B12068006800F447
:10101000002028B9206CC8B12046216C884715E013
:10102000A06C98B12046A16C88470FE0206800684A
:1010300000F4807028B92068006820F0080021685A
:101040000860206C10B12046216C884794F85C1031
:10105000202088403040002865D02068006800F0DB
:10106000100000285FD094F85C1020208840A86011
:1010700094F83500052828D12068006820F0160073
:10108000216808602068406920F08000216848617C
:10109000206C08B9A06C28B12068006820F0080016
:1010A0002168086094F85C103F208840A860012007
:1010B00084F8350000BF002084F8340000BF206DA4
:1010C00010B12046216D8847F8BD2068006800F403
:1010D000802080B12068006800F4002028B9606C8E
:1010E00010B12046616C88471DE0E06BD8B1204606
:1010F000E16B884717E02068006800F4807068B9E9
:101100002068006820F0100021680860012084F841
:10111000350000BF002084F8340000BFE06B10B140
:101120002046E16B8847606D38B3606D00F00100C8
:10113000F0B1052084F835002068006820F0010037
:101140002168086000BF0098401C0090B84200D998
:1011500005E02068006800F001000028F3D100BF1E
:10116000012084F8350000BF002084F8340000BF5F
:10117000E06C10B12046E16C884700BFA4E7000096
:10118000240000202DE9F0410446002500F0BAF9C2
:10119000074614B90120BDE8F081606A00B100BFC4
:1011A000022084F8350000BF002084F8340000BF1E
:1011B0002068006820F00100216808600AE000F063
:1011C000A1F9C01B052805D920206065032084F8FB
:1011D0003500E0E72068006800F001000028EED14B
:1011E0002068056821480540D4E901010843E16809
:1011F00008432169084361690843A1690843E1691B
:101200000843216A08430543606A042803D1D4E9EE
:101210000B0108430543206805602068456925F0F7
:101220000705606A0543606A04280DD1A06A05437A
:10123000E06A48B12046FFF7A7FD28B1402060656D
:10124000012084F83500A6E7206845612046FFF7B5
:1012500081FD064694F85C103F208840B060002075
:101260006065012084F83500002094E73F8010F08D
:101270002DE9F04704460D4616461F464FF000087C
:10128000D4F8589000BF94F83400012802D102200D
:10129000BDE8F087012084F8340000BF94F83500E1
:1012A000012825D1022084F83500002060653B46E6
:1012B000324629462046FFF7BCFD94F85C103F20DB
:1012C0008840C9F808002068006840F016002168CE
:1012D0000860206C28B12068006840F00800216890
:1012E00008602068006840F001002168086006E09E
:1012F00000BF002084F8340000BF4FF002084046D1
:10130000C6E7704710B5044604480068204020B185
:10131000024804602046FFF7F4FF10BD143C014072
:10132000F8B502460B460025002400200021C7E046
:10133000012606FA01F51E6806EA0504AC4274D1DE
:101340001E7906F00306012E04D01E7906F003066E
:10135000022E13D190684F000326BE40B0434F00C9
:10136000DE68BE4030439060506801268E40B04336
:101370001E79C6F300168E40304350601E7906F089
:101380000306032E09D0D0684F000326BE40B043A9
:101390004F009E68BE403043D0601E7906F00306C1
:1013A000022E13D1CF0802F1200656F827004E076F
:1013B000F70E0F26BE40B0434F07FF0E1E69BE401A
:1013C0003043CF0802F1200646F8270010684F008E
:1013D0000326BE40B0431E7906F003064F00BE4010
:1013E000304310605E6806F44036002E67D000BFC0
:1013F00000260096344E366846F48046324F3E60F2
:101400003E46366806F48046009600BF00BF2F4E69
:101410008F0856F827008E07370F0F26BE40B043BF
:101420002B4EB24202D1002615E048E0294EB242CE
:1014300001D101260FE0284EB24201D102260AE076
:10144000264EB24201D1032605E0254EB24201D11B
:10145000042600E007268F073F0FBE4030431B4E97
:101460008F0846F827001F4E3068A0435E6806F4D8
:10147000801606B120431B4E3060361D3068A043F5
:101480005E6806F4001606B12043164E361D306025
:10149000144E361F3068A0435E6806F4003606B16D
:1014A0002043104E361F3060361F3068A0435E6800
:1014B00006F4803606B120430A4E083E3060491CCF
:1014C0001029FFF435AFF8BD443802400838014018
:1014D000000002400004024000080240000C0240EC
:1014E00000100240083C0140024613690B400BB15A
:1014F000012000E0002070470AB1816101E00B0487
:1015000083617047014800687047000018000020A0
:1015100070B504460CB9012070BD94F83D0028B99F
:10152000002084F83C00204600F0F4FB242084F8DE
:101530003D002068006820F00100216808602068F4
:10154000006840F40040216808602068006820F4CA
:1015500000402168086000F01FFE05465C49606895
:10156000884206D85B48854201D2012007E000206E
:1015700005E05948854201D2012000E00020012801
:1015800000D1C9E75548B5FBF0F62068406820F067
:101590003F003043216848604D496068884201D867
:1015A000701C07E04FF4967070434FF47A71B0FBF3
:1015B000F1F0401C2168096A21F03F0108432168CD
:1015C000086243496068884214D8681E616849000F
:1015D000B0FBF1F0401CC0F30B00042801D2042042
:1015E0003DE0681E61684900B0FBF1F0401CC0F3AB
:1015F0000B0034E0A06838B9681E616801EB410156
:10160000B0FBF1F0401C0AE0681E616801EBC1020A
:1016100002EB0111B0FBF1F0401C40F48040C0F33C
:101620000B0008B901201AE0A06848B9681E61687B
:1016300001EB4101B0FBF1F0401CC0F30B000CE0EA
:10164000681E616801EBC10202EB0111B0FBF1F011
:10165000401CC0F30B0040F4804040F4004021687F
:10166000C9694CF6FF72914308432168C861D4E907
:10167000070108432168096821F0C0010843216877
:101680000860D4E9031008432168896848F2FF32F2
:101690009143084321688860D4E905010843216823
:1016A000C96821F0FF0108432168C860206800680C
:1016B00040F001002168086000202064202084F8A8
:1016C0003D000020206384F83E0000BF24E70000B6
:1016D000A086010080841E0000093D0040420F00EA
:1016E0002DE9F84F04460F4690461E46FFF70AFFC5
:1016F00005464FF0000994F83D0020287ED11923BB
:10170000012263492046009501F0FBFD10B1022043
:10171000BDE8F88F00BF94F83C00012801D10220F9
:10172000F6E7012084F83C0000BF2068006800F064
:10173000010028B92068006840F0010021680860B5
:101740002068006820F4006021680860242084F884
:101750003D00002020644F48E06200BF2068006820
:1017600040F4807021680860334600224FF0011178
:101770002046009501F0C5FD58B12068006800F4CE
:101780008070B0F5807F02D14FF400702064032098
:10179000BEE707F0FE0021680861FFF7B3FE0546CB
:1017A00020684069C0F3400A20684069C0F3802B7C
:1017B00010E0FFF7A7FE401BB04200D816B9A020EA
:1017C00084F83D0020684069C0F3400A2068406901
:1017D000C0F3802B94F83D00A02805D0BAF1000F8B
:1017E00002D1BBF1000FE4D0202084F83D00206836
:1017F0004069C0F3400028B3206800E045E000687D
:1018000040F400702168086000BF0020009020684C
:101810004069009020688069009000BF00BF1923D4
:1018200001221B492046009501F06BFD08B1012003
:101830006EE7202084F83D0000BF002084F83C00C3
:1018400000BF65E72068006840F400702168086008
:101850006FF4806021684861192301220C492046F9
:10186000009501F04EFD08B1012051E709F1010991
:10187000C145FFF473AF202084F83D0000BF002075
:1018800084F83C0000BF012042E7022040E700004E
:10189000020010000000FFFF2DE9F84304468946CE
:1018A00017469846089EFFF72DFE054694F83D0022
:1018B00020287DD119230122B7492046009501F047
:1018C00020FD10B10220BDE8F88300BF94F83C0071
:1018D000012801D10220F6E7012084F83C0000BF76
:1018E0002068006800F0010028B92068006840F016
:1018F0000100216808602068006820F40060216809
:101900000860222084F83D00102084F83E0000206A
:1019100020646762A4F82A80608D20859F48E06279
:101920002B4632464946204601F0BCFB08B1012057
:10193000C9E7208D88B900BF002000902068406969
:10194000009020688069009000BF00BF2068006898
:1019500040F400702168086047E0208D012817D10D
:101960002068006820F480602168086000BF0020C3
:10197000009020684069009020688069009000BF56
:1019800000BF2068006840F40070216808602CE007
:10199000208D022818D12068006820F4806021681A
:1019A00008602068006840F400602168086000E07A
:1019B000EFE000BF002000902068406900902068A0
:1019C0008069009000BF10E02068006840F48060EB
:1019D0002168086000BF00200090206840690090E6
:1019E00020688069009000BF00BFC3E0208D0328FD
:1019F0007ED8208D012815D12A463146204601F097
:101A00005CFD08B101205EE720680069616A08702A
:101A1000606A401C6062208D401E2085608D401EE3
:101A20006085A7E0208D02282AD1334600225C4938
:101A30002046009501F065FC08B1012043E72068CD
:101A4000006840F400702168086020680069616ADD
:101A50000870606A401C6062208D401E2085608D89
:101A6000401E608520680069616A0870606A401CD9
:101A70006062208D401E2085608D401E608579E06B
:101A80003346002246492046009501F03AFC08B151
:101A9000012018E72068006820F480602168086051
:101AA00020680069616A0870606A401C6062208D6D
:101AB000401E2085608D401E6085334600223849D7
:101AC0002046009501F01DFC08B10120FBE62068CE
:101AD000006840F400702168086020680069616A4D
:101AE0000870606A401C6062208D401E208500E006
:101AF00010E0608D401E608520680069616A087092
:101B0000606A401C6062208D401E2085608D401EF2
:101B100060852FE02A463146204601F0CEFC08B110
:101B20000120D0E620680069616A0870606A401C84
:101B30006062208D401E2085608D401E608520687B
:101B40004069C0F38000A8B1208D032805D120682A
:101B5000006820F480602168086020680069616A7C
:101B60000870606A401C6062208D401E2085608D78
:101B7000401E6085208D00287FF438AF202084F837
:101B80003D00002084F83E0000BF84F83C0000BF08
:101B900099E6022097E60000020010000000FFFF17
:101BA000040001002DE9F8430446894616461F4605
:101BB000DDF82080FFF7A6FC054694F83D002028BC
:101BC0007ED11923012251492046009501F099FB4D
:101BD00010B10220BDE8F88300BF94F83C00012852
:101BE00001D10220F6E7012084F83C0000BF206804
:101BF000006800F0010028B92068006840F001008A
:101C0000216808602068006820F40060216808608E
:101C1000212084F83D00102084F83E00002020643C
:101C200066626785608D20853948E0622B464246B2
:101C30004946204601F0D2FA08B10120CAE700BFA8
:101C40000020009020684069009020688069009022
:101C500000BF00BF44E02A464146204601F072FC26
:101C600050B1206C042805D12068006840F4007051
:101C7000216808600120ADE7606A0078216808618A
:101C8000606A401C6062608D401E6085208D401E31
:101C9000208520684069C0F3800070B1208D60B15C
:101CA000606A007821680861606A401C6062608D2B
:101CB000401E6085208D401E20852A46414600E05A
:101CC00022E0204601F0EAFA50B1206C042805D148
:101CD0002068006840F4007021680860012079E7FE
:101CE000208D0028B7D12068006840F4007021687A
:101CF0000860202084F83D00002084F83E0000BFEA
:101D000084F83C0000BF65E7022063E70200100092
:101D10000000FFFF10B586B00446142101A8FEF7AD
:101D200013FD1B49206888422FD100BF002000907E
:101D30001848006840F0020016490860084600682C
:101D400000F00200009000BF00BFC02001901220F0
:101D5000029000200390032004900420059001A924
:101D60000D48FFF7DDFA00BF002000900948103051
:101D7000006840F400100749103108600846006808
:101D800000F40010009000BF00BF06B010BD0000BE
:101D9000005400403038024000040240034800680C
:101DA0000349097808440149086070471800002079
:101DB0002000002010B50D48006840F400700B4969
:101DC00008600846006840F48060086008460068C3
:101DD00040F480700860032000F0E0F80F2000F06D
:101DE00007F800F05FF8002010BD0000003C024042
:101DF0002DE9F04188B004460027B84600BF002016
:101E000001902348006840F004002149086008461A
:101E1000006800F00400019000BF00BF02A903A801
:101E200000F092F9069F1FB900F0B6F9054602E0EE
:101E300000F0B2F945001748B5FBF0F0A0F1010839
:101E400015481649086040F2E7311448C160C0F8EF
:101E50000480002101618160816100F065FC06461B
:101E600096B90E4800F094FC06466EB91E2000F0AC
:101E700043F8102C07D2002221461E2000F050F813
:101E80000748046000E00126304608B0BDE8F08154
:101E90004038024040420F00000800401803002074
:101EA0001C00002008B500BF002000901148006809
:101EB00040F480400F4908600846006800F4804004
:101EC000009000BF00BF00BF00200090081F006806
:101ED00040F08050091F08600846006800F08050FC
:101EE000009000BF00BF00220F21901E00F018F8E4
:101EF00008BD0000443802400146084600280DDBBA
:101F000000BF00BF00F01F0301229A4043099B005D
:101F100003F1E023C3F8002100BF00BF00BF7047FA
:101F20002DE9F05F80460D461646002702F08EF937
:101F3000074639462A46334601F00700C0F1070A32
:101F4000BAF1040F02D94FF0040A01E0C0F1070A08
:101F5000D14600F1040ABAF1070F02D24FF0000A8D
:101F600001E0A0F1030AD4464FF0010A0AFA09FA87
:101F7000AAF1010A0AEA020A0AFA0CFA4FF0010B66
:101F80000BFA0CFBABF1010B0BEA030B4AEA0B0457
:101F90002146404602F062F9BDE8F09F00BF00F024
:101FA0000702064B19684FF6FF031940044B0B4319
:101FB00043EA0221014B196000BF70470CED00E0BD
:101FC0000000FA0570B504460D460CB9012070BD3D
:101FD0005848006800F00700A84209D255490D7022
:101FE0000846006800F00700A84201D00120EEE793
:101FF000207800F0020002281DD1207800F00400B3
:10200000042805D14C48006840F4E0504A49086073
:10201000207800F00800082805D14748006840F4FF
:102020006040454908604448006820F0F000A1681D
:10203000084341490860207800F00100A8B36068B7
:10204000012807D13C4808380068C0F34040B8B9BF
:102050000120BCE76068022802D06068032807D12D
:10206000354808380068C0F3406048B90120AEE741
:10207000314808380068C0F3400008B90120A6E7DD
:102080002D48006820F00300616808432A49086071
:10209000FFF738FA064609E0FFF734FA801B41F2F1
:1020A0008831884202D9032091E707E0224800687E
:1020B00000F00C006168B0EB810FEDD11D480068A5
:1020C00000F00700A84209D91A490D7008460068B7
:1020D00000F00700A84201D0012078E7207800F046
:1020E0000400042807D11448006820F4E050E16897
:1020F000084311490860207800F00800082808D13A
:102100000D48006820F46040216940EAC1000A4996
:10211000086000F061F808490968C1F30311074A33
:10212000515CC8400649086006480068FFF760FE39
:1021300000204CE7003C024008380240D06D000807
:10214000240000201C0000200F2202600D4A1268AB
:1021500002F0030242600B4A126802F0F002826051
:10216000084A126802F4E052C260064A126802F499
:102170006042D2080261044A126802F007020A6053
:102180007047000008380240003C024001480068E7
:10219000704700002400002000B5FFF7F7FF044956
:1021A0000968C1F38221034A515CC84000BD0000A8
:1021B00008380240E06D000800B5FFF7E7FF04496A
:1021C0000968C1F34231034A515CC84000BD0000B8
:1021D00008380240E06D00082DE9F0470024002592
:1021E0000026A1462548006800F00C0020B1042814
:1021F00005D008283AD105E0DFF8849039E0DFF80F
:10220000849036E01D48001F006800F03F041B4822
:10221000001F006800F4800078B11A481749091FB0
:102220000968C1F38811A0FB017001462246002312
:102230003846FEF789F805460EE011480F49091F98
:102240000968C1F38811A0FB0170014622460023F2
:102250003846FEF779F805460848001F0068C0F3C5
:102260000140401C4600B5FBF6F902E0DFF8109093
:1022700000BF00BF4846BDE8F087000008380240B4
:102280000024F40040787D01F8B504460CB9012023
:10229000F8BD207800F00100002874D0F9480068EB
:1022A00000F00C0004280DD0F648006800F00C0087
:1022B000082813D1F348001F006800F48000B0F52F
:1022C000800F0BD1EF4808380068C0F34040002869
:1022D00059D06068002856D10120D9E700BF606856
:1022E000B0F5803F08D1E7480838006840F48030F6
:1022F000E449083908601EE06068B0F5A02F0DD1F0
:10230000E0480838006840F48020DE490839086059
:102310000846006840F4803008600CE0D94808386E
:10232000006820F48030D749083908600846006802
:1023300020F48020086000BF606890B1FFF7E2F8E9
:10234000054606E0FFF7DEF8401B642801D90320AC
:102350009EE7CC4808380068C0F340400028F1D020
:1023600011E0FFF7CFF8054606E0FFF7CBF8401B7A
:10237000642801D903208BE7C24808380068C0F3FD
:1023800040400028F1D1207800F0020002285FD1FF
:10239000BC48006800F00C0058B1BA48006800F072
:1023A0000C0008281CD1B748001F006800F480000A
:1023B000B0B9B44808380068C0F3400020B1E06804
:1023C000012801D0012063E7AE480838006820F0FA
:1023D000F800216940EAC100AA490839086037E0DD
:1023E000E06800B30120A8490860FFF78BF80546B4
:1023F00006E0FFF787F8401B022801D9032047E7D2
:10240000A04808380068C0F340000028F1D09D487B
:102410000838006820F0F800216940EAC1009949B5
:102420000839086014E0002097490860FFF76AF84F
:10243000054606E0FFF766F8401B022801D9032095
:1024400026E7904808380068C0F340000028F1D122
:10245000207800F0080008282CD16069A8B101207C
:102460008A490860FFF74EF8054606E0FFF74AF88C
:10247000401B022801D903200AE782486C3000681B
:10248000C0F340000028F1D014E000207F4908602C
:10249000FFF738F8054606E0FFF734F8401B02283E
:1024A00001D90320F4E677486C300068C0F340009F
:1024B0000028F1D1207800F00400042870D1002712
:1024C00070483830006800F0805090B900BF00209C
:1024D00000906C483830006840F0805069493831CD
:1024E00008600846006800F08050009000BF00BF00
:1024F00001276748006800F48070B0B9644800683C
:1025000040F4807062490860FEF7FCFF054606E073
:10251000FEF7F8FF401B022801D90320B8E65C480B
:10252000006800F480700028F2D000BFA068012885
:1025300008D154486830006840F0010051496831C2
:1025400008601DE0A06805280DD14E48683000687D
:1025500040F004004B49683108600846006840F0CC
:10256000010008600CE047486830006820F0010076
:102570004449683108600846006820F0040008609B
:1025800000BFA068A8B1FEF7BDFF054609E0FEF751
:10259000B9FF401B41F28831884202D9032077E617
:1025A00026E0384868300068C0F340000028EED0CC
:1025B00013E0FEF7A7FF054608E0FEF7A3FF401B68
:1025C00041F28831884201D9032061E62D48683004
:1025D0000068C0F340000028EFD1012F07D129483F
:1025E0003830006820F0805026493831086000BF3C
:1025F000A069002845D02348006800F00C00082896
:102600005DD0A069022845D100201F490866FEF769
:1026100079FF054606E0FEF775FF401B022801D949
:10262000032035E6174808380068C0F340600028EA
:10263000F1D1D4E907010843616A40EA811101221E
:10264000A06AC2EB500041EA00412C20005D41EA43
:1026500000600C49091F086001200B490866FEF75D
:1026600051FF054606E0FEF74DFF401B022801D949
:1026700003200DE6034808380068C0F340600028D6
:10268000F1D049E00838024000004742800E47423E
:1026900000700040002021490866FEF733FF054620
:1026A00006E0FEF72FFF401B022801D90320EFE5CB
:1026B0001B480068C0F340600028F2D12CE0A069FC
:1026C000012800D1E4E51648001D0668A06901282C
:1026D00020D006F48001E06981421BD106F03F0161
:1026E000206A814216D147F6C0703040616AB0EB73
:1026F000811F0FD106F440310122A06AC2EB5000C5
:10270000B1EB004F06D106F070612C20005DB1EBFB
:10271000006F01D00120BBE50020B9E50000474271
:10272000003802407047704710B504460CB90120CC
:1027300010BD94F83D0028B9002084F83C002046E4
:1027400000F025F8022084F83D00211D206801F0EA
:10275000BFF9012084F8460000BF84F83E00012143
:102760003F200155402001554120015500BF00BFC9
:10277000012084F8420043200155442001554520A2
:10278000015500BF012084F83D000020D0E77047CC
:10279000014691F83D00012801D001207047022038
:1027A00081F83D000868C06840F001000B68D860FF
:1027B000164B0868984213D00868B0F1804F0FD0CC
:1027C000134B086898420BD0124B0868984207D008
:1027D000114B0868984203D0104B086898420CD1FE
:1027E0000868806800F00702062A0CD008680068B4
:1027F00040F001000B68186005E00868006840F0D0
:1028000001000B6818600020C8E7000000000140CC
:102810000004004000080040000C0040004001405F
:10282000704770B504462068C5682068066906F0E0
:102830000200022819D105F00200022815D1401F1C
:1028400021680861012020772068806900F003007A
:1028500018B12046FFF7E4FF05E0204600F097F8A6
:10286000204600F095F80020207706F004000428A8
:1028700019D105F00400042815D1C043216808616E
:10288000022020772068806900F4407018B120464B
:10289000FFF7C6FF05E0204600F079F8204600F07B
:1028A00077F80020207706F00800082819D105F0F5
:1028B0000800082815D1C04321680861042020774A
:1028C0002068C06900F0030018B12046FFF7A8FF98
:1028D00005E0204600F05BF8204600F059F80020A3
:1028E000207706F01000102819D105F010001028EC
:1028F00015D1C04321680861082020772068C0698D
:1029000000F4407018B12046FFF78AFF05E020462A
:1029100000F03DF8204600F03BF80020207706F05C
:10292000010048B105F0010030B16FF001002168ED
:102930000861204600F02EF806F08000802809D1BA
:1029400005F08000802805D1C04321680861204639
:10295000FFF7E8FE06F04000402809D105F04000EE
:10296000402805D1C04321680861204600F01EF8C8
:1029700006F02000202809D105F02000202805D1EC
:10298000C043216808612046FFF7CDFE70BD704747
:102990007047000010B5044603492068884201D101
:1029A000FFF7FCF910BD00000008004070477047B9
:1029B000704700002DE9F84F04462068056820683C
:1029C000C668206847694FF00009CA4605F00F093C
:1029D000B9F1000F0AD105F0200038B106F020004F
:1029E00020B1204601F0F3F9BDE8F88FB9F1000FEE
:1029F0007CD007F0010018B906F49070002875D05B
:102A000005F0010030B106F4807018B1606C40F040
:102A10000100606405F0040030B107F0010018B156
:102A2000606C40F00200606405F0020030B107F015
:102A3000010018B1606C40F00400606405F008000B
:102A400048B106F0200010B907F0010018B1606C21
:102A500040F008006064606C002846D005F020005B
:102A600028B106F0200010B1204601F0B0F920682E
:102A70004069C0F3801A606C00F0080010B9BAF128
:102A8000000F2DD0204601F049F92068406900F080
:102A90004000402820D100BF00BF2168143151E818
:102AA000001F21F040002168143141E80002002A93
:102AB000F3D100BFE06B50B17F48E16B0865E06B7C
:102AC000FEF72CFA88B1E06B016D88470DE02046D7
:102AD000FFF76EFF09E009E02046FFF769FF04E019
:102AE0002046FFF765FF002060647DE7206B01282A
:102AF00078D105F01000002874D006F010000028EE
:102B0000FAD000BF00200090206800680090206884
:102B10004068009000BF00BF2068406900F040009E
:102B2000402870D1E06B006840681FFA80F8B8F167
:102B3000000F58D0A08D404555DDA4F82E80E06BE5
:102B4000C069B0F5807F43D000BF00BF21680C3161
:102B500051E8001F21F4807021680C3141E8000227
:102B6000002AF3D100BF00BF00BF2168143151E833
:102B7000001F21F001002168143141E80002002A01
:102B8000F3D100BF00BF00BF2168143151E8001F1E
:102B900021F040002168143141E80002002AF3D1FD
:102BA00000BF202084F842000020206300BF00BF47
:102BB00021680C3151E8001F21F0100021680C3110
:102BC00041E80002002AF3D100BFE06BFEF750F9A4
:102BD00002206063A08DE28D801A81B22046FFF74B
:102BE000E6FE0EE052E0A08D40450AD1E06BC069E0
:102BF000B0F5807F05D102206063A18D2046FFF7EC
:102C0000D6FEF1E6FFE7A08DE18D401A1FFA80F8AD
:102C1000E08DD0B3B8F1000F37D000BF00BF2168FE
:102C20000C3151E8001F21F4907021680C3141E80B
:102C30000002002AF3D100BF00BF00BF2168143199
:102C400051E8001F21F001002168143141E8000221
:102C5000002AF3D100BF202084F842000020206326
:102C600000BF00BF21680C3151E8001F21F01000A7
:102C700021680C3141E80002002AF3D100BF022094
:102C8000606341462046FFF792FEADE605F0800006
:102C900030B106F0800018B1204601F099FAA3E6A1
:102CA00005F0400030B106F0400018B1204601F0B8
:102CB0006BF899E600BF97E67D3B000810B5044627
:102CC0000CB9012010BDA06900B100E000BF94F86C
:102CD000410028B9002084F84000204600F02AF87E
:102CE000242084F841002068C06820F40050216846
:102CF000C860204601F0EAF82068006920F490409E
:102D0000216808612068406920F02A002168486134
:102D10002068C06840F400502168C86000206064EA
:102D2000202084F8410084F842000020606300BF46
:102D3000C8E7000010B586B00446142101A8FDF7CD
:102D400003FD7E492068884279D100BF00200090B1
:102D50007B48006840F01000794908600846006828
:102D600000F01000009000BF00BF00BF00200090E6
:102D700073481438006840F0010071491439086044
:102D80000846006800F00100009000BF00BF4FF44B
:102D9000C060019002200290002003900320049064
:102DA0000720059001A96748FEF7BAFA6648674907
:102DB00008604FF000604860002164488160C16095
:102DC0004FF4806101610021416181614FF48071A4
:102DD000C161002101624162FEF7D4F908B1FEF73A
:102DE00044F800BF5948E063846300BF5648783018
:102DF000574908604FF000604860402154488160A6
:102E00000021C1604FF48061016100214161816155
:102E1000C16101624162FEF7B5F908B1FEF725F81C
:102E200000BF4B48A063846300BF00220721252018
:102E3000FFF776F82520FFF75FF87DE0FFE74549CB
:102E40002068884278D100BF002000903C48001FD5
:102E5000006840F400303A49091F086008460068DD
:102E600000F40030009000BF00BF00BF00200090C1
:102E700033481438006840F00100314914390860C3
:102E80000846006800F00100009000BF00BF0C2061
:102E9000019002200290002003900320049007205C
:102EA000059001A92748FEF73BFA2B482B490860FB
:102EB0004FF000604860002128488160C1604FF4F5
:102EC000806101610021416181614FF48071C161C4
:102ED000002101624162FEF755F908B1FDF7C5FF17
:102EE00000BF1E48E063846300BF1B4818301C49C4
:102EF00008604FF00060486040211948816000215F
:102F0000C1604FF480610161002141618161C16153
:102F100001624162FEF736F908B1FDF7A6FF00BF76
:102F20000F48A063846300BF002206212620FEF71D
:102F3000F7FF2620FEF7E0FF06B010BD00100140AD
:102F400044380240000002404064024098010020E2
:102F5000F801002000440040886002405802002030
:102F6000B802002070B504460D46164694F842009B
:102F700020280BD105B10EB9012070BD00202063BF
:102F800032462946204601F0B7F8F6E70220F4E77A
:102F900070477047F7B50446154694F8410020285D
:102FA0003ED1019800B10DB90120FEBD019820620B
:102FB000A584E58400206064212084F8410019483C
:102FC000A16BC8631848A16B08641848A16BC8645A
:102FD0000020A16B086501AE23681A1D31682B46DD
:102FE000A06BFEF745F930B110206064202084F812
:102FF00041000120D9E76FF040002168086000BF60
:1030000000BF2168143151E8001F41F080002168A1
:10301000143141E80002002AF3D100BF0020C4E7C8
:103020000220C2E7B73C00080F3D00088F3B0008B4
:10303000074A0168914203D10121064A117006E056
:10304000054A0168914202D10121044A117070477A
:1030500000440040B200002000100140B3000020F6
:10306000704700BFFEE7014608684069C0F3802052
:10307000B0B16FF480600A685061002008632020BE
:1030800081F83D00002081F83E00086C40F004000B
:10309000086400BF002081F83C0000BF0120704799
:1030A0000020FCE72DE9F84304460D4690461E46F5
:1030B000E76A2068006840F4806021680860082F93
:1030C00004D0012F02D017F5803F06D12068006898
:1030D00040F480702168086008E0206B112805D159
:1030E0002068006840F48070216808604346002230
:1030F0004FF001112046009600F003F960B12068FE
:10310000006800F48070B0F5807F02D14FF4007049
:1031100020640320BDE8F8832069B0F5804F05D115
:10312000E8B240F001002168086149E005F4407010
:10313000F02141EAE0102168086133464246264901
:10314000204600F03DF908B10120E3E7E8B221682C
:103150000861334642462049891F204600F030F975
:1031600008B10120D6E700BF002000902068406928
:10317000009020688069009000BF00BF2068006850
:1031800040F4807021680860434600224FF001112E
:103190002046009600F0B5F858B12068006800F4A9
:1031A0008070B0F5807F02D14FF40070206403205E
:1031B000B0E705F44070F12141EAE01021680861B0
:1031C000334642460449891F204600F0F9F808B109
:1031D00001209FE700209DE7080001002DE9F8434A
:1031E00004460D4617469846E66A082E04D0012E7E
:1031F00002D016F5803F06D12068006840F4807048
:103200002168086008E0206B122805D1206800685A
:1032100040F48070216808603B4600224FF00111A5
:103220002046CDF8008000F06CF860B1206800689E
:1032300000F48070B0F5807F02D14FF400702064FC
:103240000320BDE8F8832069B0F5804F04D105F074
:10325000FE002168086112E005F44070F02141EAA7
:10326000E0102168086143463A460B49204600F0C9
:10327000A7F808B10120E4E7E8B2216808614346F5
:103280003A460549891F204600F09AF808B1012006
:10329000D7E70020D5E700000800010070B504461C
:1032A0000D46164625E02046FFF7DDFE08B1012059
:1032B00070BD681CE8B1FEF725F9801BA84200D854
:1032C000BDB920684069C0F3800090B90020206338
:1032D000202084F83D00002084F83E00206C40F05F
:1032E0002000206400BF002084F83C0000BF0120C3
:1032F000DEE720684069C0F380000028D3D00020BA
:10330000D6E72DE9F04104460D4617461E46DDF886
:10331000188038E0701CA8B3FEF7F4F8A0EB0800A2
:10332000B04200D876BBC5F3074001280AD1206817
:103330004069A9B20840A9B2884201D101200BE03E
:10334000002009E020688069A9B20840A9B288423B
:1033500001D1012000E00020B84214D100202063F8
:10336000202084F83D00002084F83E00206C40F0CE
:103370002000206400BF002084F83C0000BF012032
:10338000BDE8F081FFE7C5F3074001280AD12068B6
:103390004069A9B20840A9B2884201D101200BE0DE
:1033A000002009E020688069A9B20840A9B28842DB
:1033B00001D1012000E00020B842ABD00020DFE7BF
:1033C0002DE9F04104460D4616461F4658E0206898
:1033D0004069C0F38020E8B12068006840F40070C4
:1033E000216808606FF480602168486100202063D4
:1033F000202084F83D00002084F83E00206C40F03E
:103400000400206400BF002084F83C0000BF0120BD
:10341000BDE8F081701C90B3FEF774F8C01BB04299
:1034200000D866BBC5F3074001280AD1206840696F
:10343000A9B20840A9B2884201D101200BE00020C6
:1034400009E020688069A9B20840A9B2884201D188
:10345000012000E0002090B900202063202084F8A3
:103460003D00002084F83E00206C40F020002064E5
:1034700000BF002084F83C0000BF0120C8E7FFE740
:10348000C5F3074001280AD120684069A9B2084065
:10349000A9B2884201D101200BE0002009E0206898
:1034A0008069A9B20840A9B2884201D1012000E098
:1034B000002000288BD00020AAE770B504460D46F6
:1034C000164637E020684069C0F30010A0B16FF0E5
:1034D00010002168486100202063202084F83D000E
:1034E000002084F83E00206C206400BF002084F897
:1034F0003C0000BF012070BDFEF704F8801BA8420D
:1035000000D8BDB920684069C0F3801090B9002090
:103510002063202084F83D00002084F83E00206CC9
:1035200040F02000206400BF002084F83C0000BF71
:103530000120E0E720684069C0F380100028C1D076
:103540000020D8E770B504460D46164625E0204613
:10355000FFF789FD08B1012070BD681CE8B1FDF7D7
:10356000D1FF801BA84200D8BDB920684069C0F3D4
:10357000C01090B900202063202084F83D00002076
:1035800084F83E00206C40F02000206400BF002042
:1035900084F83C0000BF0120DEE720684069C0F3EA
:1035A000C0100028D3D00020D6E7000008B500BF27
:1035B000002000901E48006840F400101C4908607C
:1035C0000846006800F40010009000BF00BF00BF74
:1035D000002000900846006840F48000086008461B
:1035E000006800F48000009000BF00BF00220521A9
:1035F0001020FEF795FC1020FEF77EFC002205212E
:103600001120FEF78DFC1120FEF776FC002205212B
:103610003A20FEF785FC3A20FEF76EFC00220521D9
:103620004620FEF77DFC4620FEF766FC08BD000044
:103630003038024010B5114800F071FF10490860A1
:10364000104A1021082000F0A9FE0F4908600F4A17
:1036500000210F4800F0E3FF0E4908600E4A0021E8
:103660000E4800F0DCFF0E4908600E4A00210E48AB
:1036700000F0D5FF0D49086010BD0000B86D0008CE
:1036800014000020A06D000810000020106D00083C
:103690005539000800000020586D00085F39000807
:1036A000080000207C6D00086D3900080C00002027
:1036B00000B587B0142102A8FDF746F800BF00202E
:1036C00001903448006840F08000324908600846A4
:1036D000006800F08000019000BF00BF00BF002024
:1036E00001900846006840F0010008600846006844
:1036F00000F00100019000BF00BF00BF002001905A
:103700000846006840F0020008600846006800F0C3
:103710000200019000BF00BF012230211E48FDF7CA
:10372000EBFE002201211D48FDF7E6FE012002907C
:103730004FF4041003900020049002A91648FDF7EE
:10374000EFFD0220029000200390049002A912488D
:10375000FDF7E6FD30200290012003900020049048
:10376000059002A90C48FDF7DBFD012002900390B3
:1037700000200490059002A90848FDF7D1FD002221
:1037800005210620FEF7CCFB0620FEF7B5FB07B0AF
:1037900000BD00003038024000000240000402403A
:1037A00010B50B480B4908600B48486000210948D8
:1037B0008160C1604FF480410161002141618161FC
:1037C000C1610162FDF7A4FE08B1FDF74EFB10BD1B
:1037D00000540040B4000020A086010010B50B4842
:1037E0000B4908604FF4E1304860002108488160CF
:1037F000C16001610C21416100218161C161FFF75C
:103800005DFA08B1FDF731FB10BD0000001001406A
:103810000801002010B50B480B4908604FF4E13057
:103820004860002108488160C16001610C2141614C
:1038300000218161C161FFF741FA08B1FDF715FB75
:1038400010BD0000004400405001002000BFFEE712
:1038500000BFFEE788B002F0BDFF0790B3EE090A93
:103860008DED060A9FED2D0A8DED050AB3EE090ACE
:103870008DED040A9FED290A8DED030A142400F052
:103880000BFD10B1002002F0F9F803A904A801F023
:103890001BFD38B99DED040A8DED060A9DED030A66
:1038A0008DED050A00BF642107A801F06BFFB4B9D4
:1038B00005A906A801F008FD40B19DED040A8DEDB3
:1038C000060A9DED030A8DED050A07E09DED060A47
:1038D0008DED040A9DED050A8DED030A0224601E9C
:1038E000C4B200208DF800008DF801009DED060A9D
:1038F0008DED010A9DED050A8DED020A00231A46A1
:1039000069460748006800F097FD06489DE80E00EC
:103910000EC0012004490870C5E700000000704295
:1039200010000020708A0020A8000020014609B97C
:10393000002070470548007808B90020F9E7044BDB
:103940000DCB81E80D000120F3E70000A800002066
:10395000708A002000BF012000F0CAFCFBE710B510
:1039600004462046FFF776FF10BD0000C4B00024D7
:1039700000BFFDF721F8FDF7BDF8FDF76DF903E095
:103980004FF4FA7000F0B4FCFDF73AF80028F7D0D5
:1039900000BF322120A8FDF789F9012800D100BF1E
:1039A00002F018FF001BB0F5FA6F15D341A8FFF71E
:1039B000BDFF70B18022694641A8FDF72DF805468C
:1039C000002D05DD6846FDF795F905A0FDF792F994
:1039D00000BF02F0FFFE04460A2000F089FCD8E791
:1039E0000D0A000010B54FF0E020006902F0E2FE81
:1039F000012801D002F0AAF910BD000000B593B073
:103A0000302107A8FCF7A0FE142102A8FCF79CFEB9
:103A100000BF002001902348006840F080502149F9
:103A200008600846006800F08050019000BF00BFA9
:103A300000BF002001901C48006840F440401A4933
:103A400008600846006800F44040019000BF00BFD5
:103A5000012007900004089002200D9041050E916E
:103A60000C210F91602110910221119104211291DA
:103A700007A8FEF709FC08B1FDF7F7F90F2002903F
:103A800002200390002004904FF48050059006908F
:103A9000032102A8FEF796FA08B1FDF7E6F913B084
:103AA00000BD00004038024000700040034800683C
:103AB00040F47000014908607047000088ED00E0A4
:103AC00010B50248FEF7ADFE10BD0000180300203F
:103AD00010B50268224B98420BD0B0F1804F08D04D
:103AE000204B984205D0204B984202D01F4B984261
:103AF00003D122F070024B681A43194B984214D03C
:103B0000B0F1804F11D0174B98420ED0164B98420F
:103B10000BD0164B984208D0154B984205D0154B48
:103B2000984202D0144B984203D122F44072CB68E1
:103B30001A4322F080034C6943EA04028B68C36293
:103B40000B688362064B984201D10B6903630368DB
:103B500043F00403036001234361026010BD0000D1
:103B6000000001400004004000080040000C00403C
:103B700000400140004401400048014070B5044647
:103B8000A56B0020E8852846FEF712FF70BD70B5D2
:103B900006460025B46B20684069C0F3C01594F850
:103BA0004100212805D125B10020E084204600F005
:103BB000FBF820684069C0F3801594F84200222881
:103BC00005D125B10020E085204600F0A7F8606C03
:103BD00040F0100060642046FEF7EAFE70BD70B54C
:103BE0000546AC6B2868006800F48070002842D15C
:103BF000E08500BF00BF21680C3151E8001F21F4AF
:103C0000807021680C3141E80002002AF3D100BF26
:103C100000BF00BF2168143151E8001F21F00100EE
:103C20002168143141E80002002AF3D100BF00BF2F
:103C300000BF2168143151E8001F21F040002168C5
:103C4000143141E80002002AF3D100BF202084F89B
:103C50004200206B01280ED100BF00BF21680C314B
:103C600051E8001F21F0100021680C3141E80002EA
:103C7000002AF3D100BF00206063206B012804D12B
:103C8000A18D2046FEF793FE02E02046FFF780F963
:103C900070BD70B50546AC6B01206063206B0128D8
:103CA00005D1A08D41082046FEF781FE02E02046A6
:103CB000FFF76FF970BD70B50546AC6B28680068FA
:103CC00000F48070F8B90020E08400BF00BF2168D4
:103CD000143151E8001F21F080002168143141E8BF
:103CE0000002002AF3D100BF00BF00BF21680C31E1
:103CF00051E8001F41F0400021680C3141E800020A
:103D0000002AF3D102E02046FFF792F970BD70B5AA
:103D10000446A56B2846FFF7A3F970BD00BF00BF9E
:103D200002680C3252E8002F22F4907102680C32C3
:103D300042E80013002BF3D100BF00BF00BF0268B0
:103D4000143252E8002F22F001010268143242E8D6
:103D50000013002BF3D100BF016B01290ED100BF6E
:103D600000BF02680C3252E8002F22F010010268F6
:103D70000C3242E80013002BF3D100BF202180F861
:103D8000421000210163704710B504462068C068E6
:103D900020F040002168C860202084F841002046BF
:103DA000FFF746F9002010BD00BF00BF02680C32CB
:103DB00052E8002F22F0C00102680C3242E80013E2
:103DC000002BF3D100BF202180F841107047F8B5D7
:103DD00004460025002694F84200222873D1A068EA
:103DE000B0F5805F0BD1206948B9A66A20684068A9
:103DF000C0F308003080A06A801CA06214E0A56AAD
:103E0000A068B0F5805F03D0A06828B9206918B910
:103E100020684068287004E02068406800F07F0057
:103E20002870A06A401CA062E08D401E80B2E08530
:103E3000002846D12068C06820F020002168C860B2
:103E40002068C06820F480702168C86020684069DC
:103E500020F0010021684861202084F84200002001
:103E60006063206B012826D10020206300BF00BFC3
:103E700021680C3151E8001F21F0100021680C313D
:103E800041E80002002AF3D100BF2068006800F07A
:103E9000100010280AD100BF0020009020680068A0
:103EA000009020684068009000BF00BFA18D2046B0
:103EB000FEF77DFD02E02046FFF76AF80020F8BD1E
:103EC00001E00020FBE70220F9E700002DE9F84FB0
:103ED00004462068006920F44050E16808432168E6
:103EE00008612169A068084361690843E1690843E2
:103EF00000902068C06849F20C618843009908432B
:103F00002168C8602068406920F44070A1690843B6
:103F10002168486176492068884203D07549206845
:103F2000884203D1FEF748F9814602E0FEF734F9F2
:103F30008146E069B0F5004F6CD102206168A0FBBA
:103F4000015003461920A9FB007001462A46384655
:103F5000FCF7FAF96421B0FBF1F04FEA001A0220F5
:103F60006168A0FB01510B461920A9FB00712A468C
:103F70003846FCF7E9F9834602206168A0FB01504E
:103F800003461920A9FB00712A463846FCF7DCF9E4
:103F90006421B0FBF1F000EBC00101EB0010ABEBD2
:103FA0008000322101EBC0006421B0FBF1F000F091
:103FB000F8000AEB400A02206168A0FB01500346AA
:103FC0001920A9FB007001462A463846FCF7BCF9C7
:103FD000834602206168A0FB015003461920A9FB1B
:103FE00000712A463846FCF7AFF96421B0FBF1F0C6
:103FF00000EBC00101EB0010ABEB8000322101EBC4
:10400000C0006421B0FBF1F000F0070050442168CB
:1040100088606AE004206168A0FB01500346192013
:10402000A9FB007001462A463846FCF78DF9824606
:1040300004206168A0FB015003461920A9FB007011
:1040400001462A463846FCF77FF96421B0FBF1F0BF
:1040500000EBC00101EB0010AAEB8000322101EB64
:1040600000106421B0FBF1F000F0F00A0420616858
:10407000A0FB017003461920A9FB00513A462846CF
:10408000FCF762F96421B0FBF1F00AEB001A04209E
:104090006168A0FB01510B461920A9FB00712A465B
:1040A0003846FCF751F9834604206168A0FB0150B3
:1040B00003461920A9FB007001462A463846FCF742
:1040C00043F96421B0FBF1F000EBC00101EB0010FB
:1040D000ABEB8000322101EB00106421B0FBF1F06A
:1040E00000F00F00504421688860BDE8F88F0000A0
:1040F000001001400014014077B581B00446154618
:104100000298A062A58500206064222084F8420005
:104110002C48E16BC8632C48E16B08642B48E16BC9
:10412000C8640020E16B086502AE32682368191D7F
:104130002B46E06BFDF79CF838B11020606420201E
:1041400084F84200012004B070BD00BF0020009040
:1041500020680068009020684068009000BF00BFA1
:10416000206970B100BF00BF21680C3151E8001F09
:1041700041F4807021680C3141E80002002AF3D13B
:1041800000BF00BF00BF2168143151E8001F41F09B
:1041900001002168143141E80002002AF3D100BF78
:1041A00000BF00BF2168143151E8001F41F04000FA
:1041B0002168143141E80002002AF3D100BF002039
:1041C000C1E70000DF3B0008933C00088F3B00087C
:1041D000014691F84100212828D18868B0F5805F18
:1041E0000BD1086948B90A6A1088C0F308000B6847
:1041F0005860086A801C086205E00B6A581C086257
:1042000018780B685860C88C401E80B2C88458B9B2
:104210000868C06820F080000B68D8600868C06833
:1042200040F040000B68D860002070470220FCE797
:1042300010B50248FEF7BEFB10BD000008010020CB
:1042400010B5FCF7DFFC10BD00BFFEE702480068B8
:10425000C0F30220704700000CED00E010B500280C
:1042600004DB0A07130E054A135406E00A07140E6E
:10427000034A00F00F031B1FD45410BD00E400E0FC
:1042800018ED00E0EFF30580704730380A2801D2BE
:10429000012070470020704710B50124A11E084876
:1042A000006800F00BF940B90024FCF72DFC00B1C8
:1042B00001240348006800F08BF9204610BD00007F
:1042C00014000020FDF776FDFFF798FBFFF7F0F9EB
:1042D000FFF76CF9FFF764FAFFF780FAFFF79AFA35
:1042E00000F016F8FFF7A6F900F028F800BFFEE787
:1042F00070B50546FFF7C6FF10B16FF0050404E086
:10430000002415B1284601F00FFA204670BD0000C8
:1043100010B5FFF7B7FF10B16FF0050409E00648CC
:10432000006820B9012004490860002401E04FF032
:10433000FF34204610BD00007800002070B5FFF764
:10434000A1FF10B16FF005041FE0114800680128BB
:1043500019D100BF801F0021002804DB0A07130EBB
:104360000C4A135406E00A07150E0B4A00F00F031F
:104370001B1FD55400BF00BF02200549086001F093
:1043800021FB002401E04FF0FF34204670BD000007
:104390007800002000E400E018ED00E02DE9F8438B
:1043A00005460E4614464FF00009FFF76BFF002844
:1043B0003ED1002D3CD0002E3AD0471EBCB1A068A3
:1043C00058B1E068502808D3206930B105FB06F0E9
:1043D0006169814201D301270AE0A06840B9E06821
:1043E00030B9206920B9606910B9002700E00027C2
:1043F000012F09D10020009031462846A368226988
:1044000001F011FD814606E02FB900223146284611
:1044100001F0DCFC8146B9F1000F09D014B1D4F8E9
:10442000008001E04FF000084146484601F040F9A5
:104430004846BDE8F88300002DE9F84307460D46DD
:1044400091461C463E464FF00008FFF71BFFE8B1BF
:104450000EB105B114B16FF003082AE000200090FE
:1044600000236A462946304601F06EFE012802D03C
:104470006FF002081DE00098D8B14FF080500E494F
:104480000860BFF34F8FBFF36F8F12E006B115B90D
:104490006FF003080DE0002322462946304601F064
:1044A0007FFD012805D014B16FF0010801E06FF025
:1044B00002084046BDE8F88304ED00E02DE9F04134
:1044C00004460D4624F0010604F001080027FFF71A
:1044D000D9FE08B1BF1F1FE016B96FF003071BE03C
:1044E000B8F1000F0CD02946304602F05FF80128E1
:1044F00012D015B16FF001070EE06FF002070BE06C
:104500002946304601F076FF012805D015B16FF03D
:10451000010701E06FF002073846BDE8F0812DE9A0
:10452000F04704460026FFF7ADFE00284DD10CB140
:10453000676800E0002707F0010008B1012500E0EE
:10454000002507F0080008283FD04FF0FF3874B16D
:10455000A06828B1E068502802D34FF0010808E0B5
:10456000A06830B9E06820B94FF0000801E04FF0D2
:104570000008B8F1010F0CD12DB10420A16801F0A1
:1045800010FC064612E00120A16801F00AFC064674
:104590000CE0B8F1000F09D125B1042001F0F0FBC7
:1045A000064603E0012001F0EBFB06464EB114B1D4
:1045B000D4F8009001E04FF000094946304601F080
:1045C00077F816B10DB146F001063046BDE8F08728
:1045D0002DE9F041044624F0010504F0010700260E
:1045E000FFF750FE08B1B61F16E015B96FF00306CD
:1045F00012E03FB1284601F025FE01280CD06FF0F3
:10460000020609E000231A461946284601F0C8FCB4
:10461000012801D06FF002063046BDE8F0812DE997
:10462000FF4780468946144600200390FFF72AFE84
:1046300000284ED1B8F1000F4BD0802618258246B5
:10464000471E44B3206808B1D4F800A0A06900B1A7
:10465000A5692DB1382D03D8207900F0010018B1DB
:10466000002004B0BDE8F087606908B16069860881
:10467000A06840B1E0685C2805D3206918B1606982
:1046800008B1012708E0A06830B9E06820B92069C6
:1046900010B9002700E00027012F0CD12169A06884
:1046A0004B463246CDE9005102905146404602F059
:1046B0001DF803900DE067B903A8B2B24B4651460E
:1046C000CDE90050404601F0DFFF012801D0002075
:1046D00003900398C5E700002DE9F04105460E461A
:1046E0001648076816480068001D00F095FE681C13
:1046F00038B936B112480168091D124800F0E2FECF
:104700001AE07C190E4800684460BC4207D20C488D
:104710000168091D0C48006800F0BAFE0CE008486A
:104720000168091D0948006800F0B2FE08480068E9
:10473000844201D206480460BDE8F0813C000020BC
:104740002800002050080020300000202C0000200D
:104750005800002010B5044600F0C0FE2448006850
:10476000401C234908602348006840B92148046080
:104770000846006801280DD100F016FA0AE01E482C
:10478000006838B91B480068C06AE16A884201D8ED
:104790001848046019480068401C18490860084619
:1047A000006860641649E06A0968884202D91449C1
:1047B000E06A0860E16A01EB8101124A02EB8100C4
:1047C000211D00F07FFE00F0B3FE0B48006868B1C9
:1047D00008480068C06AE16A884207D24FF08050FA
:1047E00009490860BFF34F8FBFF36F8F10BD000002
:1047F0003800002028000020440000205400002041
:1048000040000020A003002004ED00E008B500F007
:1048100065FE12480068E8B9114800F029FE114809
:1048200000F026FE0E48104908600E480F49086047
:1048300000200F4B0F4A102100900A2001F0F3FADC
:10484000064908600846006820B10BA103480068CB
:1048500000F02EFF00F06CFE08BD00006C00002090
:104860006408002078080020640000206800002010
:104870008C080020DC080020546D725100000000FC
:1048800010B516E000F02AFE0C48C068C468201D70
:1048900000F0C2FD0A480068401E09490860094846
:1048A0000068401E0749086000F042FE204600F004
:1048B0005FF8044800680028E4D110BD3C080020DF
:1048C000380000203400002070B504460D46206CEE
:1048D00070B1216CE0680144E160D4E902108842C3
:1048E00001D32168E1602846226CE168FBF7DFFE16
:1048F00070BD2DE9F04104460F4615464FF0000803
:10490000A66B206C48B9206800282CD1A06802F062
:1049100009F880460020A06025E07DB93946226C68
:104920006068FBF7C4FE216C606808446060D4E9ED
:104930000101884217D32068606014E03946226C78
:10494000E068FBF7B4FE216CE068411AE160216881
:10495000E068884203D2216CA068411AE160022D10
:1049600001D106B1761E701CA0634046BDE8F081FF
:1049700010B5044694F8590030B9206B00F0F6FDEC
:10498000204600F0F3FD1AE094F85900012803D105
:10499000204600F0EBFD12E094F85900022801D106
:1049A000012000E0002050B900BF502080F31188A2
:1049B000BFF34F8FBFF36F8F00BF00BFFEE710BD87
:1049C00001464A6A22B10A6B1268C2F1380000E05F
:1049D000002070470146084A126812680AB901228D
:1049E00000E000220A600A6822B9034A1268D2680D
:1049F000106800E0002070476400002030B547F6E2
:104A0000F003174800F007042CB1C01D20F0070088
:104A1000134C041B1B1B0246124C22600024114D38
:104A20006C60D018083820F007000F4C206000247C
:104A30000D4D2D686C600C4D2D682C601146441A8C
:104A40004C60094C24680C60084D4C682C60084D83
:104A50004C682C604FF00044064D2C6030BD0000C7
:104A6000341000207C000020840000208C000020F6
:104A7000880000209800002000BFFFF701FF0648D3
:104A800000680128F9D94FF0805004490860BFF34D
:104A90004F8FBFF36F8FF0E7A003002004ED00E01D
:104AA00010B5044654B10020A06020600021E160F0
:104AB00000231A461946204601F072FA10BD2DE96E
:104AC000F04106460D4617469846069C0DB92460EF
:104AD00000E02760E66325640121204601F014FA16
:104AE00084F84C80BDE8F0812DE9F05F82460E46E7
:104AF00090469B460A9F0C9C4FEA8801A522206B9A
:104B0000FBF71AFEA8F10100216B01EB800929F0E7
:104B1000070909F0070008B9012000E0002050B99A
:104B200000BF502080F31188BFF34F8FBFF36F8F0A
:104B300000BF00BFFEE786B1002507E0715D04F10C
:104B400034004155705D00B902E06D1C102DF5D3A5
:104B500000BF00214320015502E0002084F834000A
:104B6000382F00D33727E762E76400202065201D37
:104B700000F08BFC04F1180000F087FC2461C7F101
:104B80003800A06164620020606584F858005A46CD
:104B90005146484600F082FB20600B9808B10B9804
:104BA0000460BDE8F09F000010B5002407E004EBAE
:104BB00084010F4A02EB810000F05AFC641C382C7F
:104BC000F5D30C4800F054FC0B4800F051FC0B48A6
:104BD00000F04EFC0A4800F04BFC0A4800F048FC8C
:104BE00004480949086004480849086010BD0000ED
:104BF000A00300200008002014080020280800203E
:104C00003C080020500800202C000020300000202C
:104C100010B50146164800E0006803688B42FBD3DC
:104C20000246436813448B4204D143684C682344D2
:104C3000436001460A464B6813440468A34211D1FD
:104C40000C4C03682468A34208D04B68046864686D
:104C500023444B6003681B680B6005E0054B1B6831
:104C60000B6001E003680B60884200D0016010BD5A
:104C70007C000020840000202DE9F04104460D4610
:104C800016461F464FF0000865602461B5420CD8F7
:104C9000F01BA169884202D34FF0010811E0211DE9
:104CA0000948006800F0F4FB0BE0BE4204D2BD42AC
:104CB00002D34FF0010804E0211D0448006800F011
:104CC000E7FB4046BDE8F08168000020640000205A
:104CD00070B5054600F002FCA86B08B9012400E09D
:104CE000002400F025FC204670BD70B5054600F09C
:104CF000F5FBA86BE96B884201D1012400E0002498
:104D000000F016FC204670BDF8B505460F461A485F
:104D10000068C068C468201D00F07EFB94F828007D
:104D200000F00400E8B1A06941192B463A4620463C
:104D3000FFF7A2FFD8B1002003462A4601460090A3
:104D4000204601F09DFF064656B900BF502080F373
:104D50001188BFF34F8FBFF36F8F00BF00BFFEE717
:104D600005E094F8280020F0010084F8280020468F
:104D7000216A8847F8BD000064000020F0B587B0C4
:104D8000A0E00398002811DA04AE56B900BF502005
:104D900080F31188BFF34F8FBFF36F8F00BF00BF49
:104DA000FEE7D6E90020B168904700BF03980028CD
:104DB000E6DB059C606908B9012000E0002010B91D
:104DC000201D00F029FB02A800F0DEF8054603983C
:104DD0000A2875D2DFE800F00905073941630608A3
:104DE0003A4200BF00BF00BF00BF94F8280040F067
:104DF000010084F828000498A269811803462A4615
:104E00002046FFF739FFF8B12046216A884794F819
:104E1000280000F00400B8B1002000900498A169B7
:104E2000421800231946204601F02AFF074657B9C9
:104E300000BF502080F31188BFF34F8FBFF36F8FF7
:104E400000BF00BFFEE700BF3BE000BF94F82800B2
:104E500020F0010084F8280033E000BF94F8280017
:104E600040F0010084F828000498A061A06908B10E
:104E7000012000E0002050B900BF502080F31188CD
:104E8000BFF34F8FBFF36F8F00BF00BFFEE7A06976
:104E900041192B462A462046FFF7EEFE11E094F812
:104EA000280000F0020018B9204600F05FFB05E082
:104EB00094F8280020F0010084F8280001E0FFE7C2
:104EC00000BF00BF002203A90448006801F0DEF91A
:104ED00000287FF456AF07B0F0BD00006C00002042
:104EE000F8B505460C4600F02DFE684600F04CF87B
:104EF0000646009820BB44B9B54206D801F002FE30
:104F000031462846FFF700FF1CE03CB10E48006820
:104F1000006808B9012000E000200446A91B2246D1
:104F20000A48006800F0DAFB01F0ECFD50B94FF0E0
:104F3000805007490860BFF34F8FBFF36F8F01E0C8
:104F400001F0E0FDF8BD0000680000206C000020CA
:104F500004ED00E00A490968096809B9012100E087
:104F6000002121B14FF0FF31064A116006E00449EB
:104F70000968C968C868034A416811607047000041
:104F80002C0000205800002070B5044601F022FCDF
:104F9000054607480068854204D200F00BF801205E
:104FA000206001E00020206001480560284670BDB7
:104FB000740000202DE9F84334E025480068C068FB
:104FC000056823480068C068C468201D00F024FA02
:104FD0002046216A884794F8280000F0040008B3AE
:104FE000A0694619AE4207D966602461211D1848A0
:104FF000006800F04DFA15E0002003462A460146FD
:105000000090204601F03CFE074657B900BF5020F3
:1050100080F31188BFF34F8FBFF36F8F00BF00BFC6
:10502000FEE700BF0A480068006808B9012000E0F8
:1050300000200028C1D00648D0F80080054800684C
:10504000034908600348C0F80080BDE8F883000009
:1050500064000020680000200E480068401C08B969
:10506000012000E0002050B900BF502080F31188DB
:10507000BFF34F8FBFF36F8F00BF00BFFEE700BFCE
:10508000502080F31188BFF34F8FBFF36F8F00BFA5
:1050900000BFFEE79C00002008B500BF6846FFF790
:1050A00099FC044620460099FFF71AFFFFF766FEB9
:1050B000F4E770B5044600F011FA94F9455010E099
:1050C000606A08B9012000E0002038B904F124002A
:1050D00001F0CCFC18B100F0CBFB00E003E0681E4F
:1050E00045B2002DECDC00BFFF2084F8450000F045
:1050F0001FFA00F0F3F994F9445010E0206908B960
:10510000012000E0002048B904F1100001F0AEFCDD
:1051100008B100F0ADFB681E45B200E001E0002DD3
:10512000ECDC00BFFF2084F8440000F001FA70BD01
:105130002DE9F04104464FF0000800F003FD494816
:10514000006808B9FFF75AFC47480068204000286B
:1051500070D1D4B1083404F00700B0B104F00700F6
:10516000C0F10800044404F0070008B9012000E081
:10517000002050B900BF502080F31188BFF34F8F3B
:10518000BFF36F8F00BF00BFFEE7002C52D037483F
:10519000006884424ED8364E3046056801E02E46FF
:1051A0002D686868A04202D228680028F7D12D48EF
:1051B000006885423ED0306800F1080828683060F9
:1051C0006868001B102819D92F1907F0070008B9C3
:1051D000012000E0002050B900BF502080F311886A
:1051E000BFF34F8FBFF36F8F00BF00BFFEE768684C
:1051F000001B78606C603846FFF70AFD1B49686841
:105200000968081A194908600846006819490968B8
:10521000884203D215480068164908601249686838
:105220000968084368600020286013480068401C33
:105230001149086001F066FC08F0070008B9012078
:1052400000E0002050B900BF502080F31188BFF368
:105250004F8FBFF36F8F00BF00BFFEE74046BDE832
:10526000F0810000840000209800002088000020C9
:105270007C0000208C000020900000200648006880
:1052800030B10549096801F15000096D491C016000
:10529000014800687047000028000020001F4FF000
:1052A00080730360001F21F001030360001F054BA2
:1052B000036014380260001F6FF00203036020389F
:1052C000704700005950000870B504460D4601268D
:1052D000B11E08480068FFF7F1F840B9294620469A
:1052E000FBF71CFC064603480068FFF771F93046DF
:1052F00070BD00001400002030B502460B46FF20B0
:10530000002112E0545C604000240AE000F08005B7
:105310001DB1312585EA400500E04500E8B2651C75
:10532000ECB2082CF2DB4C1CE1B29942EADB30BD56
:10533000F0B5A3B0064600BF0020019032480068D7
:1053400000680190304800684068019000BF00BFCD
:105350002D48C06B00684068C0F5807084B22B484F
:105360000088844201D123B0F0BD842102A8FBF75C
:10537000EBF926480088844216DD24480088201A6C
:1053800080B2ADF88800BDF88800802802DD80205A
:10539000ADF88800BDF888201D481C4B1B88C1183B
:1053A00002A8FBF784F91FE018480088C0F5807058
:1053B00085B22746E81980B2ADF88800BDF88800AC
:1053C000802802DD8020ADF8880011480F4A12883D
:1053D00081182A4602A8FBF76AF902A948193A4639
:1053E0000B49FBF764F900BF08480480BDF888004A
:1053F000002806DD0023324602A90648006800F0B6
:10540000A3FE00BFAFE7000050010020B000002065
:105410007C8A0020AC00002001460A69D1E90130F5
:105420009860D1E9010358605068884201D18868CA
:105430005060002008611068401E106010687047BE
:10544000034B0360034B0B60802313607047000025
:105450007C090020D8090020034B0360034B0B603C
:105460004FF4807313607047D80B0020340C002079
:1054700000F1080141604FF0FF31816000F1080147
:10548000C160016100210160704700210161704726
:1054900010B502460B685C1C0CB9106907E002F1FC
:1054A000080000E04068446824689C42FAD94468D7
:1054B0004C604C68A160886041600A611468641C9B
:1054C000146010BD42684A6093688B6093685960AD
:1054D0009160086103685B1C0360704700BF502047
:1054E00080F31188BFF34F8FBFF36F8F00BF0E485B
:1054F0000068401C0C49086008460068012812D169
:105500000A480068C0B208B9012000E0002050B984
:1055100000BF502080F31188BFF34F8FBFF36F8F10
:1055200000BF00BFFEE770479C00002004ED00E0D4
:105530000D48006850B900BF502080F31188BFF3B8
:105540004F8FBFF36F8F00BF00BFFEE706480068B4
:10555000401E054908600846006820B9002080F315
:10556000118800BF00BF70479C00002070B5064640
:105570003546002E44D0083D2C4622496068096813
:10558000084008B1012000E0002050B900BF5020C1
:1055900080F31188BFF34F8FBFF36F8F00BF00BF41
:1055A000FEE7206808B9012000E0002050B900BFE4
:1055B000502080F31188BFF34F8FBFF36F8F00BF70
:1055C00000BFFEE70F49606809680840C0B1206865
:1055D000B0B90C49606809688843606000F0B2FAAD
:1055E0000949606809680844074908602046FFF7D0
:1055F0000FFB06480068401C0449086001F082FA6D
:1056000070BD000098000020880000209400002059
:1056100000204FF0E02108618861064800684FF4DF
:105620007A71B0FBF1F0401E4FF0E0214861072095
:10563000086170472400002070B5FAF761FE044647
:10564000102C16D304F1E02090F8F05315480078A0
:10565000854201DB012000E0002050B900BF50204E
:1056600080F31188BFF34F8FBFF36F8F00BF00BF70
:10567000FEE70D48006800F4E0600C4909688842C4
:1056800001D8012000E0002050B900BF502080F375
:105690001188BFF34F8FBFF36F8F00BF00BFFEE7CE
:1056A00070BD0000A00000200CED00E0A400002070
:1056B000024600200BE0084B53F8303033B9064B5C
:1056C00043F8301003EBC0035A6002E0401C082886
:1056D000F1D300BF70470000600300202DE9F041C6
:1056E00005460E4617462C46FFF7F8FE94F944008F
:1056F000401C10B9002084F8440094F94500401C77
:1057000010B9002084F84500FFF712FFA06B28B9FC
:105710003A46314604F1240000F0CCF82046FFF769
:10572000C8FCBDE8F081000070B504460025D4B186
:105730001248006808B9012000E0002050B900BFFD
:10574000502080F31188BFF34F8FBFF36F8F00BFDE
:1057500000BFFEE700F0F6F900212046FEF7BCFF8F
:1057600001F0D0F905463DB94FF08050044908607A
:10577000BFF34F8FBFF36F8F70BD0000600000203C
:1057800004ED00E02DE9F04704460F464FF0000914
:1057900054B900BF502080F31188BFF34F8FBFF37F
:1057A0006F8F00BF00BFFEE70FB1012000E00020B7
:1057B00050B900BF502080F31188BFF34F8FBFF363
:1057C0006F8F00BF00BFFEE72048006808B90120C6
:1057D00000E0002050B900BF502080F31188BFF3D3
:1057E0004F8FBFF36F8F00BF00BFFEE700F0AAF935
:1057F000174806682068C5192068B04207D9206894
:10580000A8420BD9B54209D94FF0010906E020683A
:10581000A84201D8B54201D94FF001092560B9F17C
:10582000000F03D0A81B0021FEF756FF01F06AF914
:105830008046B8F1000F07D14FF08050054908604D
:10584000BFF34F8FBFF36F8FBDE8F087600000207C
:105850003C00002004ED00E00349096801600349B1
:105860000968416070470000500000203C000020A3
:1058700001200149086070474C00002070B50446C3
:105880000D4654B900BF502080F31188BFF34F8FED
:10589000BFF36F8F00BF00BFFEE7054801681831F6
:1058A0002046FFF7F5FD01212846FEF715FF70BDE4
:1058B0002800002070B505460E46144655B900BFB5
:1058C000502080F31188BFF34F8FBFF36F8F00BF5D
:1058D00000BFFEE70648016818312846FFF7F2FDD1
:1058E0000CB14FF0FF3621463046FEF7F5FE70BD95
:1058F000280000202DE9F04706460F4634464FF0B9
:105900000109002E55D0206D50B900BF502080F302
:105910001188BFF34F8FBFF36F8F00BF00BFFEE74B
:10592000E06CB84201D23D4600E0E56CE06AA84276
:105930003FD0206D01283CD11F480068844201D02F
:10594000012000E0002050B900BF502080F31188F2
:10595000BFF34F8FBFF36F8F00BF00BFFEE7D4F8D8
:105960002C80E562A06900F0004010B9C5F1380054
:10597000A06108EB8801114A02EB8101606988424D
:1059800001D1012000E0002098B1201DFFF744FD67
:105990000B49E06A0968884202D90949E06A08604F
:1059A000E16A01EB8101054A02EB8100211DFFF74D
:1059B00089FDBDE8F087000028000020A00300203A
:1059C0004000002010B586B000200590049003AA86
:1059D00004A905A8FFF734FD0022DDE904101346F1
:1059E000CDE9002102901EA11F48039A00F07EFE1F
:1059F0001E4908600846006808B1012400E0002440
:105A0000012C02D101F000F90446012C15D100BF90
:105A1000502080F31188BFF34F8FBFF36F8F00BF0B
:105A20004FF0FF3012490860012012490860002041
:105A30001149086000F0D6F810E0601C08B10120A0
:105A400000E0002050B900BF502080F31188BFF360
:105A50004F8FBFF36F8F00BF00BFFEE706B010BDD2
:105A600049444C4500000000794A00085C000020D1
:105A700058000020440000203C00002070B505467E
:105A8000FFF72CFD15B92948006800E028460446B8
:105A9000201DFFF7C1FCA06A18B104F11800FFF740
:105AA000BBFC211D2248FFF70DFD94F8580001288A
:105AB00002D1002084F85800FFF73AFD1D48006825
:105AC00028B1FFF70BFDFFF745FAFFF731FD174847
:105AD0000068844229D117480068D0B11648006890
